{
  "_format": "hh-sol-artifact-1",
  "contractName": "UNCollaboration",
  "sourceName": "contracts/UNCollaboration.sol",
  "abi": [
    {
      "inputs": [],
      "stateMutability": "nonpayable",
      "type": "constructor"
    },
    {
      "anonymous": false,
      "inputs": [
        {
          "indexed": true,
          "internalType": "address",
          "name": "owner",
          "type": "address"
        },
        {
          "indexed": true,
          "internalType": "address",
          "name": "spender",
          "type": "address"
        },
        {
          "indexed": false,
          "internalType": "uint256",
          "name": "value",
          "type": "uint256"
        }
      ],
      "name": "Approval",
      "type": "event"
    },
    {
      "anonymous": false,
      "inputs": [
        {
          "indexed": true,
          "internalType": "address",
          "name": "donor",
          "type": "address"
        },
        {
          "indexed": false,
          "internalType": "uint256",
          "name": "amount",
          "type": "uint256"
        }
      ],
      "name": "DonationReceived",
      "type": "event"
    },
    {
      "anonymous": false,
      "inputs": [
        {
          "indexed": true,
          "internalType": "address",
          "name": "previousOwner",
          "type": "address"
        },
        {
          "indexed": true,
          "internalType": "address",
          "name": "newOwner",
          "type": "address"
        }
      ],
      "name": "OwnershipTransferred",
      "type": "event"
    },
    {
      "anonymous": false,
      "inputs": [
        {
          "indexed": true,
          "internalType": "uint256",
          "name": "proposalId",
          "type": "uint256"
        },
        {
          "indexed": false,
          "internalType": "bool",
          "name": "deliverablesMet",
          "type": "bool"
        }
      ],
      "name": "ProjectDeliverablesUpdated",
      "type": "event"
    },
    {
      "anonymous": false,
      "inputs": [
        {
          "indexed": true,
          "internalType": "address",
          "name": "projectManager",
          "type": "address"
        }
      ],
      "name": "ProjectManagerAdded",
      "type": "event"
    },
    {
      "anonymous": false,
      "inputs": [
        {
          "indexed": true,
          "internalType": "uint256",
          "name": "proposalId",
          "type": "uint256"
        },
        {
          "indexed": true,
          "internalType": "address",
          "name": "proposer",
          "type": "address"
        },
        {
          "indexed": false,
          "internalType": "string",
          "name": "projectDescription",
          "type": "string"
        },
        {
          "indexed": false,
          "internalType": "uint256",
          "name": "stakedAmount",
          "type": "uint256"
        }
      ],
      "name": "ProjectProposalAdded",
      "type": "event"
    },
    {
      "anonymous": false,
      "inputs": [
        {
          "indexed": true,
          "internalType": "uint256",
          "name": "proposalId",
          "type": "uint256"
        },
        {
          "indexed": false,
          "internalType": "bool",
          "name": "validated",
          "type": "bool"
        }
      ],
      "name": "ProjectProposalValidated",
      "type": "event"
    },
    {
      "anonymous": false,
      "inputs": [
        {
          "indexed": true,
          "internalType": "uint256",
          "name": "proposalId",
          "type": "uint256"
        },
        {
          "indexed": true,
          "internalType": "address",
          "name": "proposer",
          "type": "address"
        },
        {
          "indexed": false,
          "internalType": "uint256",
          "name": "stakedAmount",
          "type": "uint256"
        }
      ],
      "name": "ProjectStakeForfeited",
      "type": "event"
    },
    {
      "anonymous": false,
      "inputs": [
        {
          "indexed": false,
          "internalType": "uint256",
          "name": "newPercentage",
          "type": "uint256"
        }
      ],
      "name": "StakingFeePercentageChanged",
      "type": "event"
    },
    {
      "anonymous": false,
      "inputs": [
        {
          "indexed": true,
          "internalType": "uint256",
          "name": "taskId",
          "type": "uint256"
        },
        {
          "indexed": true,
          "internalType": "address",
          "name": "projectManager",
          "type": "address"
        },
        {
          "indexed": false,
          "internalType": "string",
          "name": "taskDescription",
          "type": "string"
        },
        {
          "indexed": false,
          "internalType": "uint256",
          "name": "reward",
          "type": "uint256"
        },
        {
          "indexed": false,
          "internalType": "address",
          "name": "volunteer",
          "type": "address"
        }
      ],
      "name": "TaskAdded",
      "type": "event"
    },
    {
      "anonymous": false,
      "inputs": [
        {
          "indexed": true,
          "internalType": "uint256",
          "name": "taskId",
          "type": "uint256"
        },
        {
          "indexed": true,
          "internalType": "address",
          "name": "volunteer",
          "type": "address"
        },
        {
          "indexed": false,
          "internalType": "uint256",
          "name": "reward",
          "type": "uint256"
        }
      ],
      "name": "TaskCompleted",
      "type": "event"
    },
    {
      "anonymous": false,
      "inputs": [
        {
          "indexed": true,
          "internalType": "address",
          "name": "receiver",
          "type": "address"
        },
        {
          "indexed": false,
          "internalType": "uint256",
          "name": "amount",
          "type": "uint256"
        }
      ],
      "name": "TokensMinted",
      "type": "event"
    },
    {
      "anonymous": false,
      "inputs": [
        {
          "indexed": true,
          "internalType": "address",
          "name": "from",
          "type": "address"
        },
        {
          "indexed": true,
          "internalType": "address",
          "name": "to",
          "type": "address"
        },
        {
          "indexed": false,
          "internalType": "uint256",
          "name": "value",
          "type": "uint256"
        }
      ],
      "name": "Transfer",
      "type": "event"
    },
    {
      "anonymous": false,
      "inputs": [
        {
          "indexed": true,
          "internalType": "uint256",
          "name": "proposalId",
          "type": "uint256"
        },
        {
          "indexed": false,
          "internalType": "uint256",
          "name": "amount",
          "type": "uint256"
        }
      ],
      "name": "UNicoinsMintedForProject",
      "type": "event"
    },
    {
      "anonymous": false,
      "inputs": [
        {
          "indexed": true,
          "internalType": "address",
          "name": "volunteer",
          "type": "address"
        }
      ],
      "name": "VolunteerAdded",
      "type": "event"
    },
    {
      "inputs": [],
      "name": "TARGET_PRICE",
      "outputs": [
        {
          "internalType": "uint256",
          "name": "",
          "type": "uint256"
        }
      ],
      "stateMutability": "view",
      "type": "function"
    },
    {
      "inputs": [],
      "name": "TOTAL_UNICOINS",
      "outputs": [
        {
          "internalType": "uint256",
          "name": "",
          "type": "uint256"
        }
      ],
      "stateMutability": "view",
      "type": "function"
    },
    {
      "inputs": [
        {
          "internalType": "address",
          "name": "projectManager",
          "type": "address"
        }
      ],
      "name": "addProjectManager",
      "outputs": [],
      "stateMutability": "nonpayable",
      "type": "function"
    },
    {
      "inputs": [
        {
          "internalType": "string",
          "name": "taskDescription",
          "type": "string"
        },
        {
          "internalType": "uint256",
          "name": "reward",
          "type": "uint256"
        },
        {
          "internalType": "address",
          "name": "volunteer",
          "type": "address"
        }
      ],
      "name": "addTask",
      "outputs": [],
      "stateMutability": "nonpayable",
      "type": "function"
    },
    {
      "inputs": [
        {
          "internalType": "address",
          "name": "volunteer",
          "type": "address"
        }
      ],
      "name": "addVolunteer",
      "outputs": [],
      "stateMutability": "nonpayable",
      "type": "function"
    },
    {
      "inputs": [
        {
          "internalType": "address",
          "name": "owner",
          "type": "address"
        },
        {
          "internalType": "address",
          "name": "spender",
          "type": "address"
        }
      ],
      "name": "allowance",
      "outputs": [
        {
          "internalType": "uint256",
          "name": "",
          "type": "uint256"
        }
      ],
      "stateMutability": "view",
      "type": "function"
    },
    {
      "inputs": [
        {
          "internalType": "address",
          "name": "spender",
          "type": "address"
        },
        {
          "internalType": "uint256",
          "name": "amount",
          "type": "uint256"
        }
      ],
      "name": "approve",
      "outputs": [
        {
          "internalType": "bool",
          "name": "",
          "type": "bool"
        }
      ],
      "stateMutability": "nonpayable",
      "type": "function"
    },
    {
      "inputs": [
        {
          "internalType": "address",
          "name": "account",
          "type": "address"
        }
      ],
      "name": "balanceOf",
      "outputs": [
        {
          "internalType": "uint256",
          "name": "",
          "type": "uint256"
        }
      ],
      "stateMutability": "view",
      "type": "function"
    },
    {
      "inputs": [
        {
          "internalType": "uint256",
          "name": "taskIndex",
          "type": "uint256"
        }
      ],
      "name": "completeTask",
      "outputs": [],
      "stateMutability": "nonpayable",
      "type": "function"
    },
    {
      "inputs": [],
      "name": "decimals",
      "outputs": [
        {
          "internalType": "uint8",
          "name": "",
          "type": "uint8"
        }
      ],
      "stateMutability": "view",
      "type": "function"
    },
    {
      "inputs": [
        {
          "internalType": "address",
          "name": "spender",
          "type": "address"
        },
        {
          "internalType": "uint256",
          "name": "subtractedValue",
          "type": "uint256"
        }
      ],
      "name": "decreaseAllowance",
      "outputs": [
        {
          "internalType": "bool",
          "name": "",
          "type": "bool"
        }
      ],
      "stateMutability": "nonpayable",
      "type": "function"
    },
    {
      "inputs": [
        {
          "internalType": "uint256",
          "name": "amount",
          "type": "uint256"
        }
      ],
      "name": "donate",
      "outputs": [],
      "stateMutability": "nonpayable",
      "type": "function"
    },
    {
      "inputs": [
        {
          "internalType": "address",
          "name": "volunteer",
          "type": "address"
        }
      ],
      "name": "getCompletedTasks",
      "outputs": [
        {
          "internalType": "uint256",
          "name": "",
          "type": "uint256"
        }
      ],
      "stateMutability": "view",
      "type": "function"
    },
    {
      "inputs": [],
      "name": "getCurrentPrice",
      "outputs": [
        {
          "internalType": "uint256",
          "name": "",
          "type": "uint256"
        }
      ],
      "stateMutability": "view",
      "type": "function"
    },
    {
      "inputs": [],
      "name": "getTaskCount",
      "outputs": [
        {
          "internalType": "uint256",
          "name": "",
          "type": "uint256"
        }
      ],
      "stateMutability": "view",
      "type": "function"
    },
    {
      "inputs": [
        {
          "internalType": "address",
          "name": "spender",
          "type": "address"
        },
        {
          "internalType": "uint256",
          "name": "addedValue",
          "type": "uint256"
        }
      ],
      "name": "increaseAllowance",
      "outputs": [
        {
          "internalType": "bool",
          "name": "",
          "type": "bool"
        }
      ],
      "stateMutability": "nonpayable",
      "type": "function"
    },
    {
      "inputs": [
        {
          "internalType": "uint256",
          "name": "proposalId",
          "type": "uint256"
        },
        {
          "internalType": "uint256",
          "name": "amount",
          "type": "uint256"
        }
      ],
      "name": "mintForProject",
      "outputs": [],
      "stateMutability": "nonpayable",
      "type": "function"
    },
    {
      "inputs": [
        {
          "internalType": "address",
          "name": "receiver",
          "type": "address"
        },
        {
          "internalType": "uint256",
          "name": "amount",
          "type": "uint256"
        }
      ],
      "name": "mintTokens",
      "outputs": [],
      "stateMutability": "nonpayable",
      "type": "function"
    },
    {
      "inputs": [],
      "name": "name",
      "outputs": [
        {
          "internalType": "string",
          "name": "",
          "type": "string"
        }
      ],
      "stateMutability": "view",
      "type": "function"
    },
    {
      "inputs": [],
      "name": "nextProposalId",
      "outputs": [
        {
          "internalType": "uint256",
          "name": "",
          "type": "uint256"
        }
      ],
      "stateMutability": "view",
      "type": "function"
    },
    {
      "inputs": [],
      "name": "organizationAccount",
      "outputs": [
        {
          "internalType": "address",
          "name": "",
          "type": "address"
        }
      ],
      "stateMutability": "view",
      "type": "function"
    },
    {
      "inputs": [],
      "name": "owner",
      "outputs": [
        {
          "internalType": "address",
          "name": "",
          "type": "address"
        }
      ],
      "stateMutability": "view",
      "type": "function"
    },
    {
      "inputs": [
        {
          "internalType": "address",
          "name": "",
          "type": "address"
        }
      ],
      "name": "projectManagers",
      "outputs": [
        {
          "internalType": "bool",
          "name": "",
          "type": "bool"
        }
      ],
      "stateMutability": "view",
      "type": "function"
    },
    {
      "inputs": [
        {
          "internalType": "uint256",
          "name": "",
          "type": "uint256"
        }
      ],
      "name": "projectProposals",
      "outputs": [
        {
          "internalType": "address",
          "name": "proposer",
          "type": "address"
        },
        {
          "internalType": "string",
          "name": "projectDescription",
          "type": "string"
        },
        {
          "internalType": "uint256",
          "name": "stakedAmount",
          "type": "uint256"
        },
        {
          "internalType": "bool",
          "name": "validated",
          "type": "bool"
        },
        {
          "internalType": "bool",
          "name": "deliverablesMet",
          "type": "bool"
        }
      ],
      "stateMutability": "view",
      "type": "function"
    },
    {
      "inputs": [
        {
          "internalType": "string",
          "name": "projectDescription",
          "type": "string"
        },
        {
          "internalType": "uint256",
          "name": "stakingAmount",
          "type": "uint256"
        }
      ],
      "name": "proposeProject",
      "outputs": [],
      "stateMutability": "nonpayable",
      "type": "function"
    },
    {
      "inputs": [],
      "name": "rebase",
      "outputs": [],
      "stateMutability": "nonpayable",
      "type": "function"
    },
    {
      "inputs": [],
      "name": "renounceOwnership",
      "outputs": [],
      "stateMutability": "nonpayable",
      "type": "function"
    },
    {
      "inputs": [
        {
          "internalType": "address",
          "name": "newOrganizationAccount",
          "type": "address"
        }
      ],
      "name": "setOrganizationAccount",
      "outputs": [],
      "stateMutability": "nonpayable",
      "type": "function"
    },
    {
      "inputs": [
        {
          "internalType": "uint256",
          "name": "newPercentage",
          "type": "uint256"
        }
      ],
      "name": "setStakingFeePercentage",
      "outputs": [],
      "stateMutability": "nonpayable",
      "type": "function"
    },
    {
      "inputs": [
        {
          "internalType": "uint256",
          "name": "amount",
          "type": "uint256"
        }
      ],
      "name": "stakeTokens",
      "outputs": [],
      "stateMutability": "nonpayable",
      "type": "function"
    },
    {
      "inputs": [],
      "name": "stakingFeePercentage",
      "outputs": [
        {
          "internalType": "uint256",
          "name": "",
          "type": "uint256"
        }
      ],
      "stateMutability": "view",
      "type": "function"
    },
    {
      "inputs": [
        {
          "internalType": "address",
          "name": "staker",
          "type": "address"
        },
        {
          "internalType": "uint256",
          "name": "positionIndex",
          "type": "uint256"
        }
      ],
      "name": "stakingPositionOf",
      "outputs": [
        {
          "internalType": "uint256",
          "name": "",
          "type": "uint256"
        }
      ],
      "stateMutability": "view",
      "type": "function"
    },
    {
      "inputs": [
        {
          "internalType": "address",
          "name": "",
          "type": "address"
        },
        {
          "internalType": "uint256",
          "name": "",
          "type": "uint256"
        }
      ],
      "name": "stakingPositions",
      "outputs": [
        {
          "internalType": "address",
          "name": "staker",
          "type": "address"
        },
        {
          "internalType": "uint256",
          "name": "amount",
          "type": "uint256"
        },
        {
          "internalType": "uint256",
          "name": "startTime",
          "type": "uint256"
        },
        {
          "internalType": "uint256",
          "name": "endTime",
          "type": "uint256"
        }
      ],
      "stateMutability": "view",
      "type": "function"
    },
    {
      "inputs": [],
      "name": "symbol",
      "outputs": [
        {
          "internalType": "string",
          "name": "",
          "type": "string"
        }
      ],
      "stateMutability": "view",
      "type": "function"
    },
    {
      "inputs": [
        {
          "internalType": "uint256",
          "name": "",
          "type": "uint256"
        }
      ],
      "name": "tasks",
      "outputs": [
        {
          "internalType": "address",
          "name": "projectManager",
          "type": "address"
        },
        {
          "internalType": "string",
          "name": "taskDescription",
          "type": "string"
        },
        {
          "internalType": "uint256",
          "name": "reward",
          "type": "uint256"
        },
        {
          "internalType": "bool",
          "name": "completed",
          "type": "bool"
        },
        {
          "internalType": "address",
          "name": "volunteer",
          "type": "address"
        },
        {
          "internalType": "bool",
          "name": "authorized",
          "type": "bool"
        }
      ],
      "stateMutability": "view",
      "type": "function"
    },
    {
      "inputs": [],
      "name": "totalDonated",
      "outputs": [
        {
          "internalType": "uint256",
          "name": "",
          "type": "uint256"
        }
      ],
      "stateMutability": "view",
      "type": "function"
    },
    {
      "inputs": [],
      "name": "totalSupply",
      "outputs": [
        {
          "internalType": "uint256",
          "name": "",
          "type": "uint256"
        }
      ],
      "stateMutability": "view",
      "type": "function"
    },
    {
      "inputs": [
        {
          "internalType": "address",
          "name": "to",
          "type": "address"
        },
        {
          "internalType": "uint256",
          "name": "amount",
          "type": "uint256"
        }
      ],
      "name": "transfer",
      "outputs": [
        {
          "internalType": "bool",
          "name": "",
          "type": "bool"
        }
      ],
      "stateMutability": "nonpayable",
      "type": "function"
    },
    {
      "inputs": [
        {
          "internalType": "address",
          "name": "from",
          "type": "address"
        },
        {
          "internalType": "address",
          "name": "to",
          "type": "address"
        },
        {
          "internalType": "uint256",
          "name": "amount",
          "type": "uint256"
        }
      ],
      "name": "transferFrom",
      "outputs": [
        {
          "internalType": "bool",
          "name": "",
          "type": "bool"
        }
      ],
      "stateMutability": "nonpayable",
      "type": "function"
    },
    {
      "inputs": [
        {
          "internalType": "address",
          "name": "newOwner",
          "type": "address"
        }
      ],
      "name": "transferOwnership",
      "outputs": [],
      "stateMutability": "nonpayable",
      "type": "function"
    },
    {
      "inputs": [
        {
          "internalType": "uint256",
          "name": "positionIndex",
          "type": "uint256"
        }
      ],
      "name": "unstakeTokens",
      "outputs": [],
      "stateMutability": "nonpayable",
      "type": "function"
    },
    {
      "inputs": [
        {
          "internalType": "uint256",
          "name": "proposalId",
          "type": "uint256"
        },
        {
          "internalType": "bool",
          "name": "isDeliverablesMet",
          "type": "bool"
        }
      ],
      "name": "updateProjectDeliverables",
      "outputs": [],
      "stateMutability": "nonpayable",
      "type": "function"
    },
    {
      "inputs": [
        {
          "internalType": "uint256",
          "name": "proposalId",
          "type": "uint256"
        },
        {
          "internalType": "bool",
          "name": "isValid",
          "type": "bool"
        }
      ],
      "name": "validateProposal",
      "outputs": [],
      "stateMutability": "nonpayable",
      "type": "function"
    },
    {
      "inputs": [
        {
          "internalType": "address",
          "name": "",
          "type": "address"
        }
      ],
      "name": "volunteers",
      "outputs": [
        {
          "internalType": "bool",
          "name": "",
          "type": "bool"
        }
      ],
      "stateMutability": "view",
      "type": "function"
    }
  ],
  "bytecode": "0x60806040526000600c556000600d556000600e553480156200002057600080fd5b506040518060400160405280601481526020017f554e436f6c6c61626f726174696f6e20436f696e0000000000000000000000008152506040518060400160405280600381526020017f554e4300000000000000000000000000000000000000000000000000000000008152508160039080519060200190620000a59291906200042e565b508060049080519060200190620000be9291906200042e565b505050620000e1620000d5620001e860201b60201c565b620001f060201b60201c565b600160068190555062000106336a115eec47f6cf7e35000000620002b660201b60201c565b6001600960003373ffffffffffffffffffffffffffffffffffffffff1673ffffffffffffffffffffffffffffffffffffffff16815260200190815260200160002060006101000a81548160ff02191690831515021790555033601060006101000a81548173ffffffffffffffffffffffffffffffffffffffff021916908373ffffffffffffffffffffffffffffffffffffffff1602179055503373ffffffffffffffffffffffffffffffffffffffff167f78fadff4dd6915f9cf72214bb7e08255d6977203cba9c7d0e779202870dce4e160405160405180910390a26200067c565b600033905090565b6000600560009054906101000a900473ffffffffffffffffffffffffffffffffffffffff16905081600560006101000a81548173ffffffffffffffffffffffffffffffffffffffff021916908373ffffffffffffffffffffffffffffffffffffffff1602179055508173ffffffffffffffffffffffffffffffffffffffff168173ffffffffffffffffffffffffffffffffffffffff167f8be0079c531659141344cd1fd0a4f28419497f9722a3daafe3b4186f6b6457e060405160405180910390a35050565b600073ffffffffffffffffffffffffffffffffffffffff168273ffffffffffffffffffffffffffffffffffffffff16141562000329576040517f08c379a0000000000000000000000000000000000000000000000000000000008152600401620003209062000531565b60405180910390fd5b6200033d600083836200042460201b60201c565b806002600082825462000351919062000581565b92505081905550806000808473ffffffffffffffffffffffffffffffffffffffff1673ffffffffffffffffffffffffffffffffffffffff168152602001908152602001600020600082825401925050819055508173ffffffffffffffffffffffffffffffffffffffff16600073ffffffffffffffffffffffffffffffffffffffff167fddf252ad1be2c89b69c2b068fc378daa952ba7f163c4a11628f55a4df523b3ef8360405162000404919062000553565b60405180910390a362000420600083836200042960201b60201c565b5050565b505050565b505050565b8280546200043c90620005e8565b90600052602060002090601f016020900481019282620004605760008555620004ac565b82601f106200047b57805160ff1916838001178555620004ac565b82800160010185558215620004ac579182015b82811115620004ab5782518255916020019190600101906200048e565b5b509050620004bb9190620004bf565b5090565b5b80821115620004da576000816000905550600101620004c0565b5090565b6000620004ed601f8362000570565b91507f45524332303a206d696e7420746f20746865207a65726f2061646472657373006000830152602082019050919050565b6200052b81620005de565b82525050565b600060208201905081810360008301526200054c81620004de565b9050919050565b60006020820190506200056a600083018462000520565b92915050565b600082825260208201905092915050565b60006200058e82620005de565b91506200059b83620005de565b9250827fffffffffffffffffffffffffffffffffffffffffffffffffffffffffffffffff03821115620005d357620005d26200061e565b5b828201905092915050565b6000819050919050565b600060028204905060018216806200060157607f821691505b602082108114156200061857620006176200064d565b5b50919050565b7f4e487b7100000000000000000000000000000000000000000000000000000000600052601160045260246000fd5b7f4e487b7100000000000000000000000000000000000000000000000000000000600052602260045260246000fd5b614a49806200068c6000396000f3fe608060405234801561001057600080fd5b50600436106102735760003560e01c80638d97767211610151578063c326adad116100c3578063e627989811610087578063e6279898146107a4578063eb91d37e146107d4578063f0dda65c146107f2578063f14faf6f1461080e578063f2fde38b1461082a578063f76c52791461084657610273565b8063c326adad146106ea578063ca535c3b14610706578063dbc1d56914610724578063dd62ed3e14610758578063e1e295581461078857610273565b806398bceccc1161011557806398bceccc14610611578063a457c2d714610644578063a9059cbb14610674578063af14052c146106a4578063ba536330146106ae578063c17a340e146106cc57610273565b80638d977672146105525780638da5cb5b1461058757806395d89b41146105a5578063974151c9146105c3578063983c00de146105e157610273565b80633ca6f385116101ea57806370d2ccd6116101ae57806370d2ccd6146104a6578063715018a6146104c257806375351009146104cc5780637547c7a3146104fc5780637e99ce5914610518578063890273fc1461053657610273565b80633ca6f385146103f25780635b0324b114610422578063608e4dd01461043e5780636db0b8851461045a57806370a082311461047657610273565b8063180acf6e1161023c578063180acf6e1461031c57806318160ddd1461033857806323b872dd146103565780632ab09d1414610386578063313ce567146103a457806339509351146103c257610273565b8062b370441461027857806306fdde0314610296578063095ea7b3146102b45780630c16d408146102e45780631394f21614610300575b600080fd5b610280610862565b60405161028d9190614627565b60405180910390f35b61029e610868565b6040516102ab9190614197565b60405180910390f35b6102ce60048036038101906102c99190613309565b6108fa565b6040516102db919061417c565b60405180910390f35b6102fe60048036038101906102f99190613345565b61091d565b005b61031a60048036038101906103159190613255565b610bce565b005b61033660048036038101906103319190613400565b610cf8565b005b610340610d92565b60405161034d9190614627565b60405180910390f35b610370600480360381019061036b91906132ba565b610d9c565b60405161037d919061417c565b60405180910390f35b61038e610dcb565b60405161039b9190614627565b60405180910390f35b6103ac610dd1565b6040516103b99190614642565b60405180910390f35b6103dc60048036038101906103d79190613309565b610dda565b6040516103e9919061417c565b60405180910390f35b61040c60048036038101906104079190613255565b610e11565b604051610419919061417c565b60405180910390f35b61043c60048036038101906104379190613255565b610e31565b005b61045860048036038101906104539190613400565b610e7d565b005b610474600480360381019061046f9190613429565b610f69565b005b610490600480360381019061048b9190613255565b6111d6565b60405161049d9190614627565b60405180910390f35b6104c060048036038101906104bb9190613399565b61121e565b005b6104ca61148e565b005b6104e660048036038101906104e19190613309565b6114a2565b6040516104f39190614627565b60405180910390f35b61051660048036038101906105119190613400565b611535565b005b610520611695565b60405161052d9190614627565b60405180910390f35b610550600480360381019061054b9190613255565b6116a1565b005b61056c60048036038101906105679190613400565b61185b565b60405161057e96959493929190614075565b60405180910390f35b61058f611989565b60405161059c919061405a565b60405180910390f35b6105ad6119b3565b6040516105ba9190614197565b60405180910390f35b6105cb611a45565b6040516105d8919061405a565b60405180910390f35b6105fb60048036038101906105f69190613255565b611a6b565b6040516106089190614627565b60405180910390f35b61062b60048036038101906106269190613309565b611b6d565b60405161063b9493929190614137565b60405180910390f35b61065e60048036038101906106599190613309565b611bda565b60405161066b919061417c565b60405180910390f35b61068e60048036038101906106899190613309565b611c51565b60405161069b919061417c565b60405180910390f35b6106ac611c74565b005b6106b6611d64565b6040516106c39190614627565b60405180910390f35b6106d4611d73565b6040516106e19190614627565b60405180910390f35b61070460048036038101906106ff9190613465565b611d80565b005b61070e611f35565b60405161071b9190614627565b60405180910390f35b61073e60048036038101906107399190613400565b611f3b565b60405161074f9594939291906140dd565b60405180910390f35b610772600480360381019061076d919061327e565b612033565b60405161077f9190614627565b60405180910390f35b6107a2600480360381019061079d9190613400565b6120ba565b005b6107be60048036038101906107b99190613255565b6122cb565b6040516107cb919061417c565b60405180910390f35b6107dc6122eb565b6040516107e99190614627565b60405180910390f35b61080c60048036038101906108079190613309565b612328565b005b61082860048036038101906108239190613400565b612477565b005b610844600480360381019061083f9190613255565b612537565b005b610860600480360381019061085b9190613429565b6125bb565b005b600d5481565b60606003805461087790614886565b80601f01602080910402602001604051908101604052809291908181526020018280546108a390614886565b80156108f05780601f106108c5576101008083540402835291602001916108f0565b820191906000526020600020905b8154815290600101906020018083116108d357829003601f168201915b5050505050905090565b60008061090561270f565b9050610912818585612717565b600191505092915050565b6109256128e2565b600860003373ffffffffffffffffffffffffffffffffffffffff1673ffffffffffffffffffffffffffffffffffffffff16815260200190815260200160002060009054906101000a900460ff166109b1576040517f08c379a00000000000000000000000000000000000000000000000000000000081526004016109a890614527565b60405180910390fd5b600081116109f4576040517f08c379a00000000000000000000000000000000000000000000000000000000081526004016109eb906144c7565b60405180910390fd5b806109fe336111d6565b1015610a3f576040517f08c379a0000000000000000000000000000000000000000000000000000000008152600401610a3690614367565b60405180910390fd5b610a493082611c51565b506000600e5490506040518060a001604052803373ffffffffffffffffffffffffffffffffffffffff16815260200184815260200183815260200160001515815260200160001515815250600b600083815260200190815260200160002060008201518160000160006101000a81548173ffffffffffffffffffffffffffffffffffffffff021916908373ffffffffffffffffffffffffffffffffffffffff1602179055506020820151816001019080519060200190610b0a92919061310b565b506040820151816002015560608201518160030160006101000a81548160ff02191690831515021790555060808201518160030160016101000a81548160ff021916908315150217905550905050600e6000815480929190610b6b906148b8565b91905055503373ffffffffffffffffffffffffffffffffffffffff16817fc97ad58e89bafa99b163ec269223d525c79fbfaf86962327ef9231217a9cac4b8585604051610bb99291906141b9565b60405180910390a350610bca612932565b5050565b600960003373ffffffffffffffffffffffffffffffffffffffff1673ffffffffffffffffffffffffffffffffffffffff16815260200190815260200160002060009054906101000a900460ff16610c5a576040517f08c379a0000000000000000000000000000000000000000000000000000000008152600401610c51906143e7565b60405180910390fd5b6001600960008373ffffffffffffffffffffffffffffffffffffffff1673ffffffffffffffffffffffffffffffffffffffff16815260200190815260200160002060006101000a81548160ff0219169083151502179055508073ffffffffffffffffffffffffffffffffffffffff167f78fadff4dd6915f9cf72214bb7e08255d6977203cba9c7d0e779202870dce4e160405160405180910390a250565b610d0061293c565b60008110158015610d12575060648111155b610d51576040517f08c379a0000000000000000000000000000000000000000000000000000000008152600401610d4890614247565b60405180910390fd5b80600c819055507f32a80662a42e8c8b641bbbbaa1b46c4e09b17feba9ad878369e3aa564aca72f881604051610d879190614627565b60405180910390a150565b6000600254905090565b600080610da761270f565b9050610db48582856129ba565b610dbf858585612a46565b60019150509392505050565b600e5481565b60006012905090565b600080610de561270f565b9050610e06818585610df78589612033565b610e0191906146da565b612717565b600191505092915050565b60096020528060005260406000206000915054906101000a900460ff1681565b610e3961293c565b80601060006101000a81548173ffffffffffffffffffffffffffffffffffffffff021916908373ffffffffffffffffffffffffffffffffffffffff16021790555050565b6000600a60003373ffffffffffffffffffffffffffffffffffffffff1673ffffffffffffffffffffffffffffffffffffffff1681526020019081526020016000208281548110610ef6577f4e487b7100000000000000000000000000000000000000000000000000000000600052603260045260246000fd5b906000526020600020906004020190506000816003015414610f4d576040517f08c379a0000000000000000000000000000000000000000000000000000000008152600401610f4490614487565b60405180910390fd5b610f5c30338360010154612a46565b4281600301819055505050565b600960003373ffffffffffffffffffffffffffffffffffffffff1673ffffffffffffffffffffffffffffffffffffffff16815260200190815260200160002060009054906101000a900460ff16610ff5576040517f08c379a0000000000000000000000000000000000000000000000000000000008152600401610fec90614307565b60405180910390fd5b6000600b600084815260200190815260200160002090508060030160009054906101000a900460ff1661105d576040517f08c379a0000000000000000000000000000000000000000000000000000000008152600401611054906145a7565b60405180910390fd5b818160030160016101000a81548160ff02191690831515021790555081156111125760006110ad606461109f600c548560020154612cbe90919063ffffffff16565b612cd490919063ffffffff16565b905060006110c8828460020154612cea90919063ffffffff16565b90506110f9308460000160009054906101000a900473ffffffffffffffffffffffffffffffffffffffff1683612a46565b61110b30611105611989565b84612a46565b5050611199565b61112130338360020154612a46565b8060000160009054906101000a900473ffffffffffffffffffffffffffffffffffffffff1673ffffffffffffffffffffffffffffffffffffffff16837fa8c5218c4888faf8cb49e646c200737680b42893becc2352cdbe2c7a9bdbd85083600201546040516111909190614627565b60405180910390a35b827f9cda5f5e1c42c3931f282fe9c1b300ca7e3948bcec7557886b36aca3312c5a43836040516111c9919061417c565b60405180910390a2505050565b60008060008373ffffffffffffffffffffffffffffffffffffffff1673ffffffffffffffffffffffffffffffffffffffff168152602001908152602001600020549050919050565b600960003373ffffffffffffffffffffffffffffffffffffffff1673ffffffffffffffffffffffffffffffffffffffff16815260200190815260200160002060009054906101000a900460ff166112aa576040517f08c379a00000000000000000000000000000000000000000000000000000000081526004016112a1906143a7565b60405180910390fd5b6000600f805490509050600f6040518060c001604052803373ffffffffffffffffffffffffffffffffffffffff1681526020018681526020018581526020016000151581526020018473ffffffffffffffffffffffffffffffffffffffff16815260200160001515815250908060018154018082558091505060019003906000526020600020906004020160009091909190915060008201518160000160006101000a81548173ffffffffffffffffffffffffffffffffffffffff021916908373ffffffffffffffffffffffffffffffffffffffff16021790555060208201518160010190805190602001906113a192919061310b565b506040820151816002015560608201518160030160006101000a81548160ff02191690831515021790555060808201518160030160016101000a81548173ffffffffffffffffffffffffffffffffffffffff021916908373ffffffffffffffffffffffffffffffffffffffff16021790555060a08201518160030160156101000a81548160ff02191690831515021790555050503373ffffffffffffffffffffffffffffffffffffffff16817fa412f9cf569f417e8bd00b013c6259a4e9acd7d0dacfd94cead726df237efa1e868686604051611480939291906141e9565b60405180910390a350505050565b61149661293c565b6114a06000612d00565b565b6000600a60008473ffffffffffffffffffffffffffffffffffffffff1673ffffffffffffffffffffffffffffffffffffffff168152602001908152602001600020828154811061151b577f4e487b7100000000000000000000000000000000000000000000000000000000600052603260045260246000fd5b906000526020600020906004020160010154905092915050565b8061153f336111d6565b1015611580576040517f08c379a000000000000000000000000000000000000000000000000000000000815260040161157790614367565b60405180910390fd5b61158b333083612a46565b600a60003373ffffffffffffffffffffffffffffffffffffffff1673ffffffffffffffffffffffffffffffffffffffff16815260200190815260200160002060405180608001604052803373ffffffffffffffffffffffffffffffffffffffff1681526020018381526020014281526020016000815250908060018154018082558091505060019003906000526020600020906004020160009091909190915060008201518160000160006101000a81548173ffffffffffffffffffffffffffffffffffffffff021916908373ffffffffffffffffffffffffffffffffffffffff160217905550602082015181600101556040820151816002015560608201518160030155505050565b670de0b6b3a764000081565b600960003373ffffffffffffffffffffffffffffffffffffffff1673ffffffffffffffffffffffffffffffffffffffff16815260200190815260200160002060009054906101000a900460ff1661172d576040517f08c379a000000000000000000000000000000000000000000000000000000000815260040161172490614567565b60405180910390fd5b6001600860008373ffffffffffffffffffffffffffffffffffffffff1673ffffffffffffffffffffffffffffffffffffffff16815260200190815260200160002060006101000a81548160ff0219169083151502179055506000600760008373ffffffffffffffffffffffffffffffffffffffff1673ffffffffffffffffffffffffffffffffffffffff168152602001908152602001600020600001819055506000600760008373ffffffffffffffffffffffffffffffffffffffff1673ffffffffffffffffffffffffffffffffffffffff168152602001908152602001600020600101819055508073ffffffffffffffffffffffffffffffffffffffff167f8a76eb268577bfb7e15df1151cfd0378609db465997555857ef4fcd3ede4c1f160405160405180910390a250565b600f818154811061186b57600080fd5b90600052602060002090600402016000915090508060000160009054906101000a900473ffffffffffffffffffffffffffffffffffffffff16908060010180546118b490614886565b80601f01602080910402602001604051908101604052809291908181526020018280546118e090614886565b801561192d5780601f106119025761010080835404028352916020019161192d565b820191906000526020600020905b81548152906001019060200180831161191057829003601f168201915b5050505050908060020154908060030160009054906101000a900460ff16908060030160019054906101000a900473ffffffffffffffffffffffffffffffffffffffff16908060030160159054906101000a900460ff16905086565b6000600560009054906101000a900473ffffffffffffffffffffffffffffffffffffffff16905090565b6060600480546119c290614886565b80601f01602080910402602001604051908101604052809291908181526020018280546119ee90614886565b8015611a3b5780601f10611a1057610100808354040283529160200191611a3b565b820191906000526020600020905b815481529060010190602001808311611a1e57829003601f168201915b5050505050905090565b601060009054906101000a900473ffffffffffffffffffffffffffffffffffffffff1681565b6000806000905060005b600f80549050811015611b63576000600f8281548110611abe577f4e487b7100000000000000000000000000000000000000000000000000000000600052603260045260246000fd5b906000526020600020906004020190508473ffffffffffffffffffffffffffffffffffffffff168160030160019054906101000a900473ffffffffffffffffffffffffffffffffffffffff1673ffffffffffffffffffffffffffffffffffffffff16148015611b3b57508060030160009054906101000a900460ff165b15611b4f578280611b4b906148b8565b9350505b508080611b5b906148b8565b915050611a75565b5080915050919050565b600a6020528160005260406000208181548110611b8957600080fd5b9060005260206000209060040201600091509150508060000160009054906101000a900473ffffffffffffffffffffffffffffffffffffffff16908060010154908060020154908060030154905084565b600080611be561270f565b90506000611bf38286612033565b905083811015611c38576040517f08c379a0000000000000000000000000000000000000000000000000000000008152600401611c2f906145e7565b60405180910390fd5b611c458286868403612717565b60019250505092915050565b600080611c5c61270f565b9050611c69818585612a46565b600191505092915050565b611c7c61293c565b6000611c866122eb565b9050670de0b6b3a7640000811115611cf2576000611ce082611cd2611cbc670de0b6b3a764000086612cea90919063ffffffff16565b611cc4610d92565b612cbe90919063ffffffff16565b612cd490919063ffffffff16565b9050611cec3082612dc6565b50611d61565b670de0b6b3a7640000811015611d60576000611d52670de0b6b3a7640000611d44611d2e85670de0b6b3a7640000612cea90919063ffffffff16565b611d36610d92565b612cbe90919063ffffffff16565b612cd490919063ffffffff16565b9050611d5e3082612f94565b505b5b50565b6a115eec47f6cf7e3500000081565b6000600f80549050905090565b601060009054906101000a900473ffffffffffffffffffffffffffffffffffffffff1673ffffffffffffffffffffffffffffffffffffffff163373ffffffffffffffffffffffffffffffffffffffff1614611e10576040517f08c379a0000000000000000000000000000000000000000000000000000000008152600401611e0790614267565b60405180910390fd5b6000600b600084815260200190815260200160002090508060030160009054906101000a900460ff16611e78576040517f08c379a0000000000000000000000000000000000000000000000000000000008152600401611e6f906145a7565b60405180910390fd5b8060030160019054906101000a900460ff1615611eca576040517f08c379a0000000000000000000000000000000000000000000000000000000008152600401611ec1906144e7565b60405180910390fd5b611ef88160000160009054906101000a900473ffffffffffffffffffffffffffffffffffffffff1683612f94565b827fa3198b29210b6332fead0a009155d35e69a31c219ce25835a33c8d47174108ab83604051611f289190614627565b60405180910390a2505050565b600c5481565b600b6020528060005260406000206000915090508060000160009054906101000a900473ffffffffffffffffffffffffffffffffffffffff1690806001018054611f8490614886565b80601f0160208091040260200160405190810160405280929190818152602001828054611fb090614886565b8015611ffd5780601f10611fd257610100808354040283529160200191611ffd565b820191906000526020600020905b815481529060010190602001808311611fe057829003601f168201915b5050505050908060020154908060030160009054906101000a900460ff16908060030160019054906101000a900460ff16905085565b6000600160008473ffffffffffffffffffffffffffffffffffffffff1673ffffffffffffffffffffffffffffffffffffffff16815260200190815260200160002060008373ffffffffffffffffffffffffffffffffffffffff1673ffffffffffffffffffffffffffffffffffffffff16815260200190815260200160002054905092915050565b6000600f82815481106120f6577f4e487b7100000000000000000000000000000000000000000000000000000000600052603260045260246000fd5b906000526020600020906004020190503373ffffffffffffffffffffffffffffffffffffffff168160030160019054906101000a900473ffffffffffffffffffffffffffffffffffffffff1673ffffffffffffffffffffffffffffffffffffffff1614612198576040517f08c379a000000000000000000000000000000000000000000000000000000000815260040161218f90614387565b60405180910390fd5b600015158160030160009054906101000a900460ff161515146121f0576040517f08c379a00000000000000000000000000000000000000000000000000000000081526004016121e790614407565b60405180910390fd5b60018160030160006101000a81548160ff0219169083151502179055506000600760003373ffffffffffffffffffffffffffffffffffffffff1673ffffffffffffffffffffffffffffffffffffffff168152602001908152602001600020905061226b826002015482600001546130eb90919063ffffffff16565b81600001819055503373ffffffffffffffffffffffffffffffffffffffff16837f843af93d40addceac6932508439844b897d4df9e971db326d557e3cdaa9f3ebf84600201546040516122be9190614627565b60405180910390a3505050565b60086020528060005260406000206000915054906101000a900460ff1681565b60006123236122f8610d92565b612315670de0b6b3a7640000600d54612cbe90919063ffffffff16565b612cd490919063ffffffff16565b905090565b600960003373ffffffffffffffffffffffffffffffffffffffff1673ffffffffffffffffffffffffffffffffffffffff16815260200190815260200160002060009054906101000a900460ff166123b4576040517f08c379a00000000000000000000000000000000000000000000000000000000081526004016123ab906143c7565b60405180910390fd5b6a115eec47f6cf7e350000006123da826123cc610d92565b6130eb90919063ffffffff16565b111561241b576040517f08c379a0000000000000000000000000000000000000000000000000000000008152600401612412906145c7565b60405180910390fd5b6124258282612f94565b8173ffffffffffffffffffffffffffffffffffffffff167f3f2c9d57c068687834f0de942a9babb9e5acab57d516d3480a3c16ee165a42738260405161246b9190614627565b60405180910390a25050565b600081116124ba576040517f08c379a00000000000000000000000000000000000000000000000000000000081526004016124b1906142e7565b60405180910390fd5b6124e6601060009054906101000a900473ffffffffffffffffffffffffffffffffffffffff1682612f94565b3373ffffffffffffffffffffffffffffffffffffffff167f264f630d9efa0d07053a31163641d9fcc0adafc9d9e76f1c37c2ce3a558d2c528260405161252c9190614627565b60405180910390a250565b61253f61293c565b600073ffffffffffffffffffffffffffffffffffffffff168173ffffffffffffffffffffffffffffffffffffffff1614156125af576040517f08c379a00000000000000000000000000000000000000000000000000000000081526004016125a6906142a7565b60405180910390fd5b6125b881612d00565b50565b600960003373ffffffffffffffffffffffffffffffffffffffff1673ffffffffffffffffffffffffffffffffffffffff16815260200190815260200160002060009054906101000a900460ff16612647576040517f08c379a000000000000000000000000000000000000000000000000000000000815260040161263e90614427565b60405180910390fd5b6000600b60008481526020019081526020016000209050600015158160030160009054906101000a900460ff161515146126b6576040517f08c379a00000000000000000000000000000000000000000000000000000000081526004016126ad90614547565b60405180910390fd5b818160030160006101000a81548160ff021916908315150217905550827f834b15fc22ef38f6369b26611438cf75325615c41b839147963b157e7205133d83604051612702919061417c565b60405180910390a2505050565b600033905090565b600073ffffffffffffffffffffffffffffffffffffffff168373ffffffffffffffffffffffffffffffffffffffff161415612787576040517f08c379a000000000000000000000000000000000000000000000000000000000815260040161277e90614507565b60405180910390fd5b600073ffffffffffffffffffffffffffffffffffffffff168273ffffffffffffffffffffffffffffffffffffffff1614156127f7576040517f08c379a00000000000000000000000000000000000000000000000000000000081526004016127ee906142c7565b60405180910390fd5b80600160008573ffffffffffffffffffffffffffffffffffffffff1673ffffffffffffffffffffffffffffffffffffffff16815260200190815260200160002060008473ffffffffffffffffffffffffffffffffffffffff1673ffffffffffffffffffffffffffffffffffffffff168152602001908152602001600020819055508173ffffffffffffffffffffffffffffffffffffffff168373ffffffffffffffffffffffffffffffffffffffff167f8c5be1e5ebec7d5bd14f71427d1e84f3dd0314c0f7b2291e5b200ac8c7c3b925836040516128d59190614627565b60405180910390a3505050565b60026006541415612928576040517f08c379a000000000000000000000000000000000000000000000000000000000815260040161291f90614587565b60405180910390fd5b6002600681905550565b6001600681905550565b61294461270f565b73ffffffffffffffffffffffffffffffffffffffff16612962611989565b73ffffffffffffffffffffffffffffffffffffffff16146129b8576040517f08c379a00000000000000000000000000000000000000000000000000000000081526004016129af90614447565b60405180910390fd5b565b60006129c68484612033565b90507fffffffffffffffffffffffffffffffffffffffffffffffffffffffffffffffff8114612a405781811015612a32576040517f08c379a0000000000000000000000000000000000000000000000000000000008152600401612a2990614327565b60405180910390fd5b612a3f8484848403612717565b5b50505050565b600073ffffffffffffffffffffffffffffffffffffffff168373ffffffffffffffffffffffffffffffffffffffff161415612ab6576040517f08c379a0000000000000000000000000000000000000000000000000000000008152600401612aad906144a7565b60405180910390fd5b600073ffffffffffffffffffffffffffffffffffffffff168273ffffffffffffffffffffffffffffffffffffffff161415612b26576040517f08c379a0000000000000000000000000000000000000000000000000000000008152600401612b1d90614227565b60405180910390fd5b612b31838383613101565b60008060008573ffffffffffffffffffffffffffffffffffffffff1673ffffffffffffffffffffffffffffffffffffffff16815260200190815260200160002054905081811015612bb7576040517f08c379a0000000000000000000000000000000000000000000000000000000008152600401612bae90614347565b60405180910390fd5b8181036000808673ffffffffffffffffffffffffffffffffffffffff1673ffffffffffffffffffffffffffffffffffffffff16815260200190815260200160002081905550816000808573ffffffffffffffffffffffffffffffffffffffff1673ffffffffffffffffffffffffffffffffffffffff168152602001908152602001600020600082825401925050819055508273ffffffffffffffffffffffffffffffffffffffff168473ffffffffffffffffffffffffffffffffffffffff167fddf252ad1be2c89b69c2b068fc378daa952ba7f163c4a11628f55a4df523b3ef84604051612ca59190614627565b60405180910390a3612cb8848484613106565b50505050565b60008183612ccc9190614761565b905092915050565b60008183612ce29190614730565b905092915050565b60008183612cf891906147bb565b905092915050565b6000600560009054906101000a900473ffffffffffffffffffffffffffffffffffffffff16905081600560006101000a81548173ffffffffffffffffffffffffffffffffffffffff021916908373ffffffffffffffffffffffffffffffffffffffff1602179055508173ffffffffffffffffffffffffffffffffffffffff168173ffffffffffffffffffffffffffffffffffffffff167f8be0079c531659141344cd1fd0a4f28419497f9722a3daafe3b4186f6b6457e060405160405180910390a35050565b600073ffffffffffffffffffffffffffffffffffffffff168273ffffffffffffffffffffffffffffffffffffffff161415612e36576040517f08c379a0000000000000000000000000000000000000000000000000000000008152600401612e2d90614467565b60405180910390fd5b612e4282600083613101565b60008060008473ffffffffffffffffffffffffffffffffffffffff1673ffffffffffffffffffffffffffffffffffffffff16815260200190815260200160002054905081811015612ec8576040517f08c379a0000000000000000000000000000000000000000000000000000000008152600401612ebf90614287565b60405180910390fd5b8181036000808573ffffffffffffffffffffffffffffffffffffffff1673ffffffffffffffffffffffffffffffffffffffff1681526020019081526020016000208190555081600260008282540392505081905550600073ffffffffffffffffffffffffffffffffffffffff168373ffffffffffffffffffffffffffffffffffffffff167fddf252ad1be2c89b69c2b068fc378daa952ba7f163c4a11628f55a4df523b3ef84604051612f7b9190614627565b60405180910390a3612f8f83600084613106565b505050565b600073ffffffffffffffffffffffffffffffffffffffff168273ffffffffffffffffffffffffffffffffffffffff161415613004576040517f08c379a0000000000000000000000000000000000000000000000000000000008152600401612ffb90614607565b60405180910390fd5b61301060008383613101565b806002600082825461302291906146da565b92505081905550806000808473ffffffffffffffffffffffffffffffffffffffff1673ffffffffffffffffffffffffffffffffffffffff168152602001908152602001600020600082825401925050819055508173ffffffffffffffffffffffffffffffffffffffff16600073ffffffffffffffffffffffffffffffffffffffff167fddf252ad1be2c89b69c2b068fc378daa952ba7f163c4a11628f55a4df523b3ef836040516130d39190614627565b60405180910390a36130e760008383613106565b5050565b600081836130f991906146da565b905092915050565b505050565b505050565b82805461311790614886565b90600052602060002090601f0160209004810192826131395760008555613180565b82601f1061315257805160ff1916838001178555613180565b82800160010185558215613180579182015b8281111561317f578251825591602001919060010190613164565b5b50905061318d9190613191565b5090565b5b808211156131aa576000816000905550600101613192565b5090565b60006131c16131bc8461468e565b61465d565b9050828152602081018484840111156131d957600080fd5b6131e4848285614844565b509392505050565b6000813590506131fb816149ce565b92915050565b600081359050613210816149e5565b92915050565b600082601f83011261322757600080fd5b81356132378482602086016131ae565b91505092915050565b60008135905061324f816149fc565b92915050565b60006020828403121561326757600080fd5b6000613275848285016131ec565b91505092915050565b6000806040838503121561329157600080fd5b600061329f858286016131ec565b92505060206132b0858286016131ec565b9150509250929050565b6000806000606084860312156132cf57600080fd5b60006132dd868287016131ec565b93505060206132ee868287016131ec565b92505060406132ff86828701613240565b9150509250925092565b6000806040838503121561331c57600080fd5b600061332a858286016131ec565b925050602061333b85828601613240565b9150509250929050565b6000806040838503121561335857600080fd5b600083013567ffffffffffffffff81111561337257600080fd5b61337e85828601613216565b925050602061338f85828601613240565b9150509250929050565b6000806000606084860312156133ae57600080fd5b600084013567ffffffffffffffff8111156133c857600080fd5b6133d486828701613216565b93505060206133e586828701613240565b92505060406133f6868287016131ec565b9150509250925092565b60006020828403121561341257600080fd5b600061342084828501613240565b91505092915050565b6000806040838503121561343c57600080fd5b600061344a85828601613240565b925050602061345b85828601613201565b9150509250929050565b6000806040838503121561347857600080fd5b600061348685828601613240565b925050602061349785828601613240565b9150509250929050565b6134aa816147ef565b82525050565b6134b981614801565b82525050565b60006134ca826146be565b6134d481856146c9565b93506134e4818560208601614853565b6134ed816149bd565b840191505092915050565b60006135056023836146c9565b91507f45524332303a207472616e7366657220746f20746865207a65726f206164647260008301527f65737300000000000000000000000000000000000000000000000000000000006020830152604082019050919050565b600061356b601e836146c9565b91507f496e76616c6964207374616b696e67206665652070657263656e7461676500006000830152602082019050919050565b60006135ab6033836146c9565b91507f4f6e6c7920746865206f7267616e697a6174696f6e206163636f756e7420636160008301527f6e206d696e7420666f722070726f6a65637473000000000000000000000000006020830152604082019050919050565b60006136116022836146c9565b91507f45524332303a206275726e20616d6f756e7420657863656564732062616c616e60008301527f63650000000000000000000000000000000000000000000000000000000000006020830152604082019050919050565b60006136776026836146c9565b91507f4f776e61626c653a206e6577206f776e657220697320746865207a65726f206160008301527f64647265737300000000000000000000000000000000000000000000000000006020830152604082019050919050565b60006136dd6022836146c9565b91507f45524332303a20617070726f766520746f20746865207a65726f20616464726560008301527f73730000000000000000000000000000000000000000000000000000000000006020830152604082019050919050565b60006137436026836146c9565b91507f446f6e6174696f6e20616d6f756e74206d75737420626520677265617465722060008301527f7468616e203000000000000000000000000000000000000000000000000000006020830152604082019050919050565b60006137a96035836146c9565b91507f4f6e6c792070726f6a656374206d616e61676572732063616e2075706461746560008301527f2070726f6a6563742064656c6976657261626c657300000000000000000000006020830152604082019050919050565b600061380f601d836146c9565b91507f45524332303a20696e73756666696369656e7420616c6c6f77616e63650000006000830152602082019050919050565b600061384f6026836146c9565b91507f45524332303a207472616e7366657220616d6f756e742065786365656473206260008301527f616c616e636500000000000000000000000000000000000000000000000000006020830152604082019050919050565b60006138b56014836146c9565b91507f496e73756666696369656e742062616c616e63650000000000000000000000006000830152602082019050919050565b60006138f56031836146c9565b91507f4f6e6c79207468652061737369676e656420766f6c756e746565722063616e2060008301527f636f6d706c65746520746865207461736b0000000000000000000000000000006020830152604082019050919050565b600061395b6023836146c9565b91507f4f6e6c792070726f6a656374206d616e61676572732063616e2061646420746160008301527f736b7300000000000000000000000000000000000000000000000000000000006020830152604082019050919050565b60006139c16025836146c9565b91507f4f6e6c792070726f6a656374206d616e61676572732063616e206d696e74207460008301527f6f6b656e730000000000000000000000000000000000000000000000000000006020830152604082019050919050565b6000613a27603b836146c9565b91507f4f6e6c79206578697374696e672070726f6a656374206d616e6167657273206360008301527f616e20616464206e65772070726f6a656374206d616e616765727300000000006020830152604082019050919050565b6000613a8d6019836146c9565b91507f5461736b20697320616c726561647920636f6d706c65746564000000000000006000830152602082019050919050565b6000613acd602c836146c9565b91507f4f6e6c792070726f6a656374206d616e61676572732063616e2076616c69646160008301527f74652070726f706f73616c7300000000000000000000000000000000000000006020830152604082019050919050565b6000613b336020836146c9565b91507f4f776e61626c653a2063616c6c6572206973206e6f7420746865206f776e65726000830152602082019050919050565b6000613b736021836146c9565b91507f45524332303a206275726e2066726f6d20746865207a65726f2061646472657360008301527f73000000000000000000000000000000000000000000000000000000000000006020830152604082019050919050565b6000613bd9601b836146c9565b91507f546f6b656e732061726520616c726561647920756e7374616b656400000000006000830152602082019050919050565b6000613c196025836146c9565b91507f45524332303a207472616e736665722066726f6d20746865207a65726f20616460008301527f64726573730000000000000000000000000000000000000000000000000000006020830152604082019050919050565b6000613c7f6025836146c9565b91507f5374616b696e6720616d6f756e74206d7573742062652067726561746572207460008301527f68616e20300000000000000000000000000000000000000000000000000000006020830152604082019050919050565b6000613ce56024836146c9565b91507f50726f6a6563742064656c6976657261626c65732061726520616c726561647960008301527f206d6574000000000000000000000000000000000000000000000000000000006020830152604082019050919050565b6000613d4b6024836146c9565b91507f45524332303a20617070726f76652066726f6d20746865207a65726f2061646460008301527f72657373000000000000000000000000000000000000000000000000000000006020830152604082019050919050565b6000613db16024836146c9565b91507f4f6e6c7920766f6c756e74656572732063616e2070726f706f73652070726f6a60008301527f65637473000000000000000000000000000000000000000000000000000000006020830152604082019050919050565b6000613e17601d836146c9565b91507f50726f706f73616c20697320616c72656164792076616c6964617465640000006000830152602082019050919050565b6000613e576028836146c9565b91507f4f6e6c792070726f6a656374206d616e61676572732063616e2061646420766f60008301527f6c756e74656572730000000000000000000000000000000000000000000000006020830152604082019050919050565b6000613ebd601f836146c9565b91507f5265656e7472616e637947756172643a207265656e7472616e742063616c6c006000830152602082019050919050565b6000613efd6020836146c9565b91507f50726f706f73616c206d7573742062652076616c6964617465642066697273746000830152602082019050919050565b6000613f3d6021836146c9565b91507f4d696e74696e6720776f756c642065786365656420746f74616c20737570706c60008301527f79000000000000000000000000000000000000000000000000000000000000006020830152604082019050919050565b6000613fa36025836146c9565b91507f45524332303a2064656372656173656420616c6c6f77616e63652062656c6f7760008301527f207a65726f0000000000000000000000000000000000000000000000000000006020830152604082019050919050565b6000614009601f836146c9565b91507f45524332303a206d696e7420746f20746865207a65726f2061646472657373006000830152602082019050919050565b6140458161482d565b82525050565b61405481614837565b82525050565b600060208201905061406f60008301846134a1565b92915050565b600060c08201905061408a60008301896134a1565b818103602083015261409c81886134bf565b90506140ab604083018761403c565b6140b860608301866134b0565b6140c560808301856134a1565b6140d260a08301846134b0565b979650505050505050565b600060a0820190506140f260008301886134a1565b818103602083015261410481876134bf565b9050614113604083018661403c565b61412060608301856134b0565b61412d60808301846134b0565b9695505050505050565b600060808201905061414c60008301876134a1565b614159602083018661403c565b614166604083018561403c565b614173606083018461403c565b95945050505050565b600060208201905061419160008301846134b0565b92915050565b600060208201905081810360008301526141b181846134bf565b905092915050565b600060408201905081810360008301526141d381856134bf565b90506141e2602083018461403c565b9392505050565b6000606082019050818103600083015261420381866134bf565b9050614212602083018561403c565b61421f60408301846134a1565b949350505050565b60006020820190508181036000830152614240816134f8565b9050919050565b600060208201905081810360008301526142608161355e565b9050919050565b600060208201905081810360008301526142808161359e565b9050919050565b600060208201905081810360008301526142a081613604565b9050919050565b600060208201905081810360008301526142c08161366a565b9050919050565b600060208201905081810360008301526142e0816136d0565b9050919050565b6000602082019050818103600083015261430081613736565b9050919050565b600060208201905081810360008301526143208161379c565b9050919050565b6000602082019050818103600083015261434081613802565b9050919050565b6000602082019050818103600083015261436081613842565b9050919050565b60006020820190508181036000830152614380816138a8565b9050919050565b600060208201905081810360008301526143a0816138e8565b9050919050565b600060208201905081810360008301526143c08161394e565b9050919050565b600060208201905081810360008301526143e0816139b4565b9050919050565b6000602082019050818103600083015261440081613a1a565b9050919050565b6000602082019050818103600083015261442081613a80565b9050919050565b6000602082019050818103600083015261444081613ac0565b9050919050565b6000602082019050818103600083015261446081613b26565b9050919050565b6000602082019050818103600083015261448081613b66565b9050919050565b600060208201905081810360008301526144a081613bcc565b9050919050565b600060208201905081810360008301526144c081613c0c565b9050919050565b600060208201905081810360008301526144e081613c72565b9050919050565b6000602082019050818103600083015261450081613cd8565b9050919050565b6000602082019050818103600083015261452081613d3e565b9050919050565b6000602082019050818103600083015261454081613da4565b9050919050565b6000602082019050818103600083015261456081613e0a565b9050919050565b6000602082019050818103600083015261458081613e4a565b9050919050565b600060208201905081810360008301526145a081613eb0565b9050919050565b600060208201905081810360008301526145c081613ef0565b9050919050565b600060208201905081810360008301526145e081613f30565b9050919050565b6000602082019050818103600083015261460081613f96565b9050919050565b6000602082019050818103600083015261462081613ffc565b9050919050565b600060208201905061463c600083018461403c565b92915050565b6000602082019050614657600083018461404b565b92915050565b6000604051905081810181811067ffffffffffffffff821117156146845761468361498e565b5b8060405250919050565b600067ffffffffffffffff8211156146a9576146a861498e565b5b601f19601f8301169050602081019050919050565b600081519050919050565b600082825260208201905092915050565b60006146e58261482d565b91506146f08361482d565b9250827fffffffffffffffffffffffffffffffffffffffffffffffffffffffffffffffff0382111561472557614724614901565b5b828201905092915050565b600061473b8261482d565b91506147468361482d565b92508261475657614755614930565b5b828204905092915050565b600061476c8261482d565b91506147778361482d565b9250817fffffffffffffffffffffffffffffffffffffffffffffffffffffffffffffffff04831182151516156147b0576147af614901565b5b828202905092915050565b60006147c68261482d565b91506147d18361482d565b9250828210156147e4576147e3614901565b5b828203905092915050565b60006147fa8261480d565b9050919050565b60008115159050919050565b600073ffffffffffffffffffffffffffffffffffffffff82169050919050565b6000819050919050565b600060ff82169050919050565b82818337600083830152505050565b60005b83811015614871578082015181840152602081019050614856565b83811115614880576000848401525b50505050565b6000600282049050600182168061489e57607f821691505b602082108114156148b2576148b161495f565b5b50919050565b60006148c38261482d565b91507fffffffffffffffffffffffffffffffffffffffffffffffffffffffffffffffff8214156148f6576148f5614901565b5b600182019050919050565b7f4e487b7100000000000000000000000000000000000000000000000000000000600052601160045260246000fd5b7f4e487b7100000000000000000000000000000000000000000000000000000000600052601260045260246000fd5b7f4e487b7100000000000000000000000000000000000000000000000000000000600052602260045260246000fd5b7f4e487b7100000000000000000000000000000000000000000000000000000000600052604160045260246000fd5b6000601f19601f8301169050919050565b6149d7816147ef565b81146149e257600080fd5b50565b6149ee81614801565b81146149f957600080fd5b50565b614a058161482d565b8114614a1057600080fd5b5056fea26469706673582212203d4fc2372bcfd2f373beea7b3290340b35a44072c066f67cdba0aed7afecef1b64736f6c63430008000033",
  "linkReferences": {},
  "deployedLinkReferences": {}
}