{
  "_format": "hh-sol-artifact-1",
  "contractName": "UNCollaboration",
  "sourceName": "contracts/UNCollaboration.sol",
  "abi": [
    {
      "inputs": [],
      "stateMutability": "nonpayable",
      "type": "constructor"
    },
    {
      "anonymous": false,
      "inputs": [
        {
          "indexed": true,
          "internalType": "address",
          "name": "owner",
          "type": "address"
        },
        {
          "indexed": true,
          "internalType": "address",
          "name": "spender",
          "type": "address"
        },
        {
          "indexed": false,
          "internalType": "uint256",
          "name": "value",
          "type": "uint256"
        }
      ],
      "name": "Approval",
      "type": "event"
    },
    {
      "anonymous": false,
      "inputs": [
        {
          "indexed": true,
          "internalType": "address",
          "name": "donor",
          "type": "address"
        },
        {
          "indexed": false,
          "internalType": "uint256",
          "name": "amount",
          "type": "uint256"
        }
      ],
      "name": "DonationReceived",
      "type": "event"
    },
    {
      "anonymous": false,
      "inputs": [
        {
          "indexed": true,
          "internalType": "address",
          "name": "previousOwner",
          "type": "address"
        },
        {
          "indexed": true,
          "internalType": "address",
          "name": "newOwner",
          "type": "address"
        }
      ],
      "name": "OwnershipTransferred",
      "type": "event"
    },
    {
      "anonymous": false,
      "inputs": [
        {
          "indexed": true,
          "internalType": "uint256",
          "name": "proposalId",
          "type": "uint256"
        },
        {
          "indexed": false,
          "internalType": "bool",
          "name": "deliverablesMet",
          "type": "bool"
        }
      ],
      "name": "ProjectDeliverablesUpdated",
      "type": "event"
    },
    {
      "anonymous": false,
      "inputs": [
        {
          "indexed": true,
          "internalType": "address",
          "name": "projectManager",
          "type": "address"
        }
      ],
      "name": "ProjectManagerAdded",
      "type": "event"
    },
    {
      "anonymous": false,
      "inputs": [
        {
          "indexed": true,
          "internalType": "uint256",
          "name": "proposalId",
          "type": "uint256"
        },
        {
          "indexed": true,
          "internalType": "address",
          "name": "proposer",
          "type": "address"
        },
        {
          "indexed": false,
          "internalType": "string",
          "name": "projectDescription",
          "type": "string"
        },
        {
          "indexed": false,
          "internalType": "uint256",
          "name": "stakedAmount",
          "type": "uint256"
        }
      ],
      "name": "ProjectProposalAdded",
      "type": "event"
    },
    {
      "anonymous": false,
      "inputs": [
        {
          "indexed": true,
          "internalType": "uint256",
          "name": "proposalId",
          "type": "uint256"
        },
        {
          "indexed": false,
          "internalType": "bool",
          "name": "validated",
          "type": "bool"
        }
      ],
      "name": "ProjectProposalValidated",
      "type": "event"
    },
    {
      "anonymous": false,
      "inputs": [
        {
          "indexed": true,
          "internalType": "uint256",
          "name": "proposalId",
          "type": "uint256"
        },
        {
          "indexed": true,
          "internalType": "address",
          "name": "proposer",
          "type": "address"
        },
        {
          "indexed": false,
          "internalType": "uint256",
          "name": "stakedAmount",
          "type": "uint256"
        }
      ],
      "name": "ProjectStakeForfeited",
      "type": "event"
    },
    {
      "anonymous": false,
      "inputs": [
        {
          "indexed": false,
          "internalType": "uint256",
          "name": "newPercentage",
          "type": "uint256"
        }
      ],
      "name": "StakingFeePercentageChanged",
      "type": "event"
    },
    {
      "anonymous": false,
      "inputs": [
        {
          "indexed": true,
          "internalType": "uint256",
          "name": "taskId",
          "type": "uint256"
        },
        {
          "indexed": true,
          "internalType": "address",
          "name": "projectManager",
          "type": "address"
        },
        {
          "indexed": false,
          "internalType": "string",
          "name": "taskDescription",
          "type": "string"
        },
        {
          "indexed": false,
          "internalType": "uint256",
          "name": "reward",
          "type": "uint256"
        },
        {
          "indexed": false,
          "internalType": "address",
          "name": "volunteer",
          "type": "address"
        }
      ],
      "name": "TaskAdded",
      "type": "event"
    },
    {
      "anonymous": false,
      "inputs": [
        {
          "indexed": true,
          "internalType": "uint256",
          "name": "taskId",
          "type": "uint256"
        },
        {
          "indexed": true,
          "internalType": "address",
          "name": "volunteer",
          "type": "address"
        },
        {
          "indexed": false,
          "internalType": "uint256",
          "name": "reward",
          "type": "uint256"
        }
      ],
      "name": "TaskCompleted",
      "type": "event"
    },
    {
      "anonymous": false,
      "inputs": [
        {
          "indexed": true,
          "internalType": "address",
          "name": "receiver",
          "type": "address"
        },
        {
          "indexed": false,
          "internalType": "uint256",
          "name": "amount",
          "type": "uint256"
        }
      ],
      "name": "TokensMinted",
      "type": "event"
    },
    {
      "anonymous": false,
      "inputs": [
        {
          "indexed": true,
          "internalType": "address",
          "name": "from",
          "type": "address"
        },
        {
          "indexed": true,
          "internalType": "address",
          "name": "to",
          "type": "address"
        },
        {
          "indexed": false,
          "internalType": "uint256",
          "name": "value",
          "type": "uint256"
        }
      ],
      "name": "Transfer",
      "type": "event"
    },
    {
      "anonymous": false,
      "inputs": [
        {
          "indexed": true,
          "internalType": "uint256",
          "name": "proposalId",
          "type": "uint256"
        },
        {
          "indexed": false,
          "internalType": "uint256",
          "name": "amount",
          "type": "uint256"
        }
      ],
      "name": "UNicoinsMintedForProject",
      "type": "event"
    },
    {
      "anonymous": false,
      "inputs": [
        {
          "indexed": true,
          "internalType": "address",
          "name": "volunteer",
          "type": "address"
        }
      ],
      "name": "VolunteerAdded",
      "type": "event"
    },
    {
      "inputs": [],
      "name": "TARGET_PRICE",
      "outputs": [
        {
          "internalType": "uint256",
          "name": "",
          "type": "uint256"
        }
      ],
      "stateMutability": "view",
      "type": "function"
    },
    {
      "inputs": [],
      "name": "TOTAL_UNICOINS",
      "outputs": [
        {
          "internalType": "uint256",
          "name": "",
          "type": "uint256"
        }
      ],
      "stateMutability": "view",
      "type": "function"
    },
    {
      "inputs": [
        {
          "internalType": "address",
          "name": "projectManager",
          "type": "address"
        }
      ],
      "name": "addProjectManager",
      "outputs": [],
      "stateMutability": "nonpayable",
      "type": "function"
    },
    {
      "inputs": [
        {
          "internalType": "string",
          "name": "taskDescription",
          "type": "string"
        },
        {
          "internalType": "uint256",
          "name": "reward",
          "type": "uint256"
        },
        {
          "internalType": "address",
          "name": "volunteer",
          "type": "address"
        }
      ],
      "name": "addTask",
      "outputs": [],
      "stateMutability": "nonpayable",
      "type": "function"
    },
    {
      "inputs": [
        {
          "internalType": "address",
          "name": "volunteer",
          "type": "address"
        }
      ],
      "name": "addVolunteer",
      "outputs": [],
      "stateMutability": "nonpayable",
      "type": "function"
    },
    {
      "inputs": [
        {
          "internalType": "address",
          "name": "owner",
          "type": "address"
        },
        {
          "internalType": "address",
          "name": "spender",
          "type": "address"
        }
      ],
      "name": "allowance",
      "outputs": [
        {
          "internalType": "uint256",
          "name": "",
          "type": "uint256"
        }
      ],
      "stateMutability": "view",
      "type": "function"
    },
    {
      "inputs": [
        {
          "internalType": "address",
          "name": "spender",
          "type": "address"
        },
        {
          "internalType": "uint256",
          "name": "amount",
          "type": "uint256"
        }
      ],
      "name": "approve",
      "outputs": [
        {
          "internalType": "bool",
          "name": "",
          "type": "bool"
        }
      ],
      "stateMutability": "nonpayable",
      "type": "function"
    },
    {
      "inputs": [
        {
          "internalType": "address",
          "name": "account",
          "type": "address"
        }
      ],
      "name": "balanceOf",
      "outputs": [
        {
          "internalType": "uint256",
          "name": "",
          "type": "uint256"
        }
      ],
      "stateMutability": "view",
      "type": "function"
    },
    {
      "inputs": [
        {
          "internalType": "uint256",
          "name": "taskIndex",
          "type": "uint256"
        }
      ],
      "name": "completeTask",
      "outputs": [],
      "stateMutability": "nonpayable",
      "type": "function"
    },
    {
      "inputs": [],
      "name": "decimals",
      "outputs": [
        {
          "internalType": "uint8",
          "name": "",
          "type": "uint8"
        }
      ],
      "stateMutability": "view",
      "type": "function"
    },
    {
      "inputs": [
        {
          "internalType": "address",
          "name": "spender",
          "type": "address"
        },
        {
          "internalType": "uint256",
          "name": "subtractedValue",
          "type": "uint256"
        }
      ],
      "name": "decreaseAllowance",
      "outputs": [
        {
          "internalType": "bool",
          "name": "",
          "type": "bool"
        }
      ],
      "stateMutability": "nonpayable",
      "type": "function"
    },
    {
      "inputs": [
        {
          "internalType": "uint256",
          "name": "amount",
          "type": "uint256"
        }
      ],
      "name": "donate",
      "outputs": [],
      "stateMutability": "nonpayable",
      "type": "function"
    },
    {
      "inputs": [],
      "name": "getCurrentPrice",
      "outputs": [
        {
          "internalType": "uint256",
          "name": "",
          "type": "uint256"
        }
      ],
      "stateMutability": "view",
      "type": "function"
    },
    {
      "inputs": [
        {
          "internalType": "address",
          "name": "spender",
          "type": "address"
        },
        {
          "internalType": "uint256",
          "name": "addedValue",
          "type": "uint256"
        }
      ],
      "name": "increaseAllowance",
      "outputs": [
        {
          "internalType": "bool",
          "name": "",
          "type": "bool"
        }
      ],
      "stateMutability": "nonpayable",
      "type": "function"
    },
    {
      "inputs": [
        {
          "internalType": "uint256",
          "name": "proposalId",
          "type": "uint256"
        },
        {
          "internalType": "uint256",
          "name": "amount",
          "type": "uint256"
        }
      ],
      "name": "mintForProject",
      "outputs": [],
      "stateMutability": "nonpayable",
      "type": "function"
    },
    {
      "inputs": [
        {
          "internalType": "address",
          "name": "receiver",
          "type": "address"
        },
        {
          "internalType": "uint256",
          "name": "amount",
          "type": "uint256"
        }
      ],
      "name": "mintTokens",
      "outputs": [],
      "stateMutability": "nonpayable",
      "type": "function"
    },
    {
      "inputs": [],
      "name": "name",
      "outputs": [
        {
          "internalType": "string",
          "name": "",
          "type": "string"
        }
      ],
      "stateMutability": "view",
      "type": "function"
    },
    {
      "inputs": [],
      "name": "nextProposalId",
      "outputs": [
        {
          "internalType": "uint256",
          "name": "",
          "type": "uint256"
        }
      ],
      "stateMutability": "view",
      "type": "function"
    },
    {
      "inputs": [],
      "name": "organizationAccount",
      "outputs": [
        {
          "internalType": "address",
          "name": "",
          "type": "address"
        }
      ],
      "stateMutability": "view",
      "type": "function"
    },
    {
      "inputs": [],
      "name": "owner",
      "outputs": [
        {
          "internalType": "address",
          "name": "",
          "type": "address"
        }
      ],
      "stateMutability": "view",
      "type": "function"
    },
    {
      "inputs": [
        {
          "internalType": "address",
          "name": "",
          "type": "address"
        }
      ],
      "name": "projectManagers",
      "outputs": [
        {
          "internalType": "bool",
          "name": "",
          "type": "bool"
        }
      ],
      "stateMutability": "view",
      "type": "function"
    },
    {
      "inputs": [
        {
          "internalType": "uint256",
          "name": "",
          "type": "uint256"
        }
      ],
      "name": "projectProposals",
      "outputs": [
        {
          "internalType": "address",
          "name": "proposer",
          "type": "address"
        },
        {
          "internalType": "string",
          "name": "projectDescription",
          "type": "string"
        },
        {
          "internalType": "uint256",
          "name": "stakedAmount",
          "type": "uint256"
        },
        {
          "internalType": "bool",
          "name": "validated",
          "type": "bool"
        },
        {
          "internalType": "bool",
          "name": "deliverablesMet",
          "type": "bool"
        }
      ],
      "stateMutability": "view",
      "type": "function"
    },
    {
      "inputs": [
        {
          "internalType": "string",
          "name": "projectDescription",
          "type": "string"
        },
        {
          "internalType": "uint256",
          "name": "stakingAmount",
          "type": "uint256"
        }
      ],
      "name": "proposeProject",
      "outputs": [],
      "stateMutability": "nonpayable",
      "type": "function"
    },
    {
      "inputs": [],
      "name": "rebase",
      "outputs": [],
      "stateMutability": "nonpayable",
      "type": "function"
    },
    {
      "inputs": [],
      "name": "renounceOwnership",
      "outputs": [],
      "stateMutability": "nonpayable",
      "type": "function"
    },
    {
      "inputs": [
        {
          "internalType": "address",
          "name": "newOrganizationAccount",
          "type": "address"
        }
      ],
      "name": "setOrganizationAccount",
      "outputs": [],
      "stateMutability": "nonpayable",
      "type": "function"
    },
    {
      "inputs": [
        {
          "internalType": "uint256",
          "name": "newPercentage",
          "type": "uint256"
        }
      ],
      "name": "setStakingFeePercentage",
      "outputs": [],
      "stateMutability": "nonpayable",
      "type": "function"
    },
    {
      "inputs": [
        {
          "internalType": "uint256",
          "name": "amount",
          "type": "uint256"
        }
      ],
      "name": "stakeTokens",
      "outputs": [],
      "stateMutability": "nonpayable",
      "type": "function"
    },
    {
      "inputs": [],
      "name": "stakingFeePercentage",
      "outputs": [
        {
          "internalType": "uint256",
          "name": "",
          "type": "uint256"
        }
      ],
      "stateMutability": "view",
      "type": "function"
    },
    {
      "inputs": [
        {
          "internalType": "address",
          "name": "staker",
          "type": "address"
        },
        {
          "internalType": "uint256",
          "name": "positionIndex",
          "type": "uint256"
        }
      ],
      "name": "stakingPositionOf",
      "outputs": [
        {
          "internalType": "uint256",
          "name": "",
          "type": "uint256"
        }
      ],
      "stateMutability": "view",
      "type": "function"
    },
    {
      "inputs": [
        {
          "internalType": "address",
          "name": "",
          "type": "address"
        },
        {
          "internalType": "uint256",
          "name": "",
          "type": "uint256"
        }
      ],
      "name": "stakingPositions",
      "outputs": [
        {
          "internalType": "address",
          "name": "staker",
          "type": "address"
        },
        {
          "internalType": "uint256",
          "name": "amount",
          "type": "uint256"
        },
        {
          "internalType": "uint256",
          "name": "startTime",
          "type": "uint256"
        },
        {
          "internalType": "uint256",
          "name": "endTime",
          "type": "uint256"
        }
      ],
      "stateMutability": "view",
      "type": "function"
    },
    {
      "inputs": [],
      "name": "symbol",
      "outputs": [
        {
          "internalType": "string",
          "name": "",
          "type": "string"
        }
      ],
      "stateMutability": "view",
      "type": "function"
    },
    {
      "inputs": [
        {
          "internalType": "uint256",
          "name": "",
          "type": "uint256"
        }
      ],
      "name": "tasks",
      "outputs": [
        {
          "internalType": "address",
          "name": "projectManager",
          "type": "address"
        },
        {
          "internalType": "string",
          "name": "taskDescription",
          "type": "string"
        },
        {
          "internalType": "uint256",
          "name": "reward",
          "type": "uint256"
        },
        {
          "internalType": "bool",
          "name": "completed",
          "type": "bool"
        },
        {
          "internalType": "address",
          "name": "volunteer",
          "type": "address"
        },
        {
          "internalType": "bool",
          "name": "authorized",
          "type": "bool"
        }
      ],
      "stateMutability": "view",
      "type": "function"
    },
    {
      "inputs": [],
      "name": "totalDonated",
      "outputs": [
        {
          "internalType": "uint256",
          "name": "",
          "type": "uint256"
        }
      ],
      "stateMutability": "view",
      "type": "function"
    },
    {
      "inputs": [],
      "name": "totalSupply",
      "outputs": [
        {
          "internalType": "uint256",
          "name": "",
          "type": "uint256"
        }
      ],
      "stateMutability": "view",
      "type": "function"
    },
    {
      "inputs": [
        {
          "internalType": "address",
          "name": "to",
          "type": "address"
        },
        {
          "internalType": "uint256",
          "name": "amount",
          "type": "uint256"
        }
      ],
      "name": "transfer",
      "outputs": [
        {
          "internalType": "bool",
          "name": "",
          "type": "bool"
        }
      ],
      "stateMutability": "nonpayable",
      "type": "function"
    },
    {
      "inputs": [
        {
          "internalType": "address",
          "name": "from",
          "type": "address"
        },
        {
          "internalType": "address",
          "name": "to",
          "type": "address"
        },
        {
          "internalType": "uint256",
          "name": "amount",
          "type": "uint256"
        }
      ],
      "name": "transferFrom",
      "outputs": [
        {
          "internalType": "bool",
          "name": "",
          "type": "bool"
        }
      ],
      "stateMutability": "nonpayable",
      "type": "function"
    },
    {
      "inputs": [
        {
          "internalType": "address",
          "name": "newOwner",
          "type": "address"
        }
      ],
      "name": "transferOwnership",
      "outputs": [],
      "stateMutability": "nonpayable",
      "type": "function"
    },
    {
      "inputs": [
        {
          "internalType": "uint256",
          "name": "positionIndex",
          "type": "uint256"
        }
      ],
      "name": "unstakeTokens",
      "outputs": [],
      "stateMutability": "nonpayable",
      "type": "function"
    },
    {
      "inputs": [
        {
          "internalType": "uint256",
          "name": "proposalId",
          "type": "uint256"
        },
        {
          "internalType": "bool",
          "name": "isDeliverablesMet",
          "type": "bool"
        }
      ],
      "name": "updateProjectDeliverables",
      "outputs": [],
      "stateMutability": "nonpayable",
      "type": "function"
    },
    {
      "inputs": [
        {
          "internalType": "uint256",
          "name": "proposalId",
          "type": "uint256"
        },
        {
          "internalType": "bool",
          "name": "isValid",
          "type": "bool"
        }
      ],
      "name": "validateProposal",
      "outputs": [],
      "stateMutability": "nonpayable",
      "type": "function"
    },
    {
      "inputs": [
        {
          "internalType": "address",
          "name": "",
          "type": "address"
        }
      ],
      "name": "volunteers",
      "outputs": [
        {
          "internalType": "bool",
          "name": "",
          "type": "bool"
        }
      ],
      "stateMutability": "view",
      "type": "function"
    }
  ],
  "bytecode": "0x60806040526000600c556000600d556000600e553480156200002057600080fd5b506040518060400160405280601481526020017f554e436f6c6c61626f726174696f6e20436f696e0000000000000000000000008152506040518060400160405280600381526020017f554e4300000000000000000000000000000000000000000000000000000000008152508160039080519060200190620000a59291906200042e565b508060049080519060200190620000be9291906200042e565b505050620000e1620000d5620001e860201b60201c565b620001f060201b60201c565b600160068190555062000106336a115eec47f6cf7e35000000620002b660201b60201c565b6001600960003373ffffffffffffffffffffffffffffffffffffffff1673ffffffffffffffffffffffffffffffffffffffff16815260200190815260200160002060006101000a81548160ff02191690831515021790555033601060006101000a81548173ffffffffffffffffffffffffffffffffffffffff021916908373ffffffffffffffffffffffffffffffffffffffff1602179055503373ffffffffffffffffffffffffffffffffffffffff167f78fadff4dd6915f9cf72214bb7e08255d6977203cba9c7d0e779202870dce4e160405160405180910390a26200067c565b600033905090565b6000600560009054906101000a900473ffffffffffffffffffffffffffffffffffffffff16905081600560006101000a81548173ffffffffffffffffffffffffffffffffffffffff021916908373ffffffffffffffffffffffffffffffffffffffff1602179055508173ffffffffffffffffffffffffffffffffffffffff168173ffffffffffffffffffffffffffffffffffffffff167f8be0079c531659141344cd1fd0a4f28419497f9722a3daafe3b4186f6b6457e060405160405180910390a35050565b600073ffffffffffffffffffffffffffffffffffffffff168273ffffffffffffffffffffffffffffffffffffffff16141562000329576040517f08c379a0000000000000000000000000000000000000000000000000000000008152600401620003209062000531565b60405180910390fd5b6200033d600083836200042460201b60201c565b806002600082825462000351919062000581565b92505081905550806000808473ffffffffffffffffffffffffffffffffffffffff1673ffffffffffffffffffffffffffffffffffffffff168152602001908152602001600020600082825401925050819055508173ffffffffffffffffffffffffffffffffffffffff16600073ffffffffffffffffffffffffffffffffffffffff167fddf252ad1be2c89b69c2b068fc378daa952ba7f163c4a11628f55a4df523b3ef8360405162000404919062000553565b60405180910390a362000420600083836200042960201b60201c565b5050565b505050565b505050565b8280546200043c90620005e8565b90600052602060002090601f016020900481019282620004605760008555620004ac565b82601f106200047b57805160ff1916838001178555620004ac565b82800160010185558215620004ac579182015b82811115620004ab5782518255916020019190600101906200048e565b5b509050620004bb9190620004bf565b5090565b5b80821115620004da576000816000905550600101620004c0565b5090565b6000620004ed601f8362000570565b91507f45524332303a206d696e7420746f20746865207a65726f2061646472657373006000830152602082019050919050565b6200052b81620005de565b82525050565b600060208201905081810360008301526200054c81620004de565b9050919050565b60006020820190506200056a600083018462000520565b92915050565b600082825260208201905092915050565b60006200058e82620005de565b91506200059b83620005de565b9250827fffffffffffffffffffffffffffffffffffffffffffffffffffffffffffffffff03821115620005d357620005d26200061e565b5b828201905092915050565b6000819050919050565b600060028204905060018216806200060157607f821691505b602082108114156200061857620006176200064d565b5b50919050565b7f4e487b7100000000000000000000000000000000000000000000000000000000600052601160045260246000fd5b7f4e487b7100000000000000000000000000000000000000000000000000000000600052602260045260246000fd5b6148d6806200068c6000396000f3fe608060405234801561001057600080fd5b506004361061025d5760003560e01c8063890273fc11610146578063c326adad116100c3578063e627989811610087578063e627989814610740578063eb91d37e14610770578063f0dda65c1461078e578063f14faf6f146107aa578063f2fde38b146107c6578063f76c5279146107e25761025d565b8063c326adad14610686578063ca535c3b146106a2578063dbc1d569146106c0578063dd62ed3e146106f4578063e1e29558146107245761025d565b806398bceccc1161010a57806398bceccc146105cb578063a457c2d7146105fe578063a9059cbb1461062e578063af14052c1461065e578063ba536330146106685761025d565b8063890273fc146105205780638d9776721461053c5780638da5cb5b1461057157806395d89b411461058f578063974151c9146105ad5761025d565b806339509351116101df57806370a08231116101a357806370a082311461046057806370d2ccd614610490578063715018a6146104ac57806375351009146104b65780637547c7a3146104e65780637e99ce59146105025761025d565b806339509351146103ac5780633ca6f385146103dc5780635b0324b11461040c578063608e4dd0146104285780636db0b885146104445761025d565b8063180acf6e11610226578063180acf6e1461030657806318160ddd1461032257806323b872dd146103405780632ab09d1414610370578063313ce5671461038e5761025d565b8062b370441461026257806306fdde0314610280578063095ea7b31461029e5780630c16d408146102ce5780631394f216146102ea575b600080fd5b61026a6107fe565b60405161027791906144b4565b60405180910390f35b610288610804565b6040516102959190614024565b60405180910390f35b6102b860048036038101906102b39190613196565b610896565b6040516102c59190614009565b60405180910390f35b6102e860048036038101906102e391906131d2565b6108b9565b005b61030460048036038101906102ff91906130e2565b610b6a565b005b610320600480360381019061031b919061328d565b610c94565b005b61032a610d2e565b60405161033791906144b4565b60405180910390f35b61035a60048036038101906103559190613147565b610d38565b6040516103679190614009565b60405180910390f35b610378610d67565b60405161038591906144b4565b60405180910390f35b610396610d6d565b6040516103a391906144cf565b60405180910390f35b6103c660048036038101906103c19190613196565b610d76565b6040516103d39190614009565b60405180910390f35b6103f660048036038101906103f191906130e2565b610dad565b6040516104039190614009565b60405180910390f35b610426600480360381019061042191906130e2565b610dcd565b005b610442600480360381019061043d919061328d565b610e19565b005b61045e600480360381019061045991906132b6565b610f05565b005b61047a600480360381019061047591906130e2565b611172565b60405161048791906144b4565b60405180910390f35b6104aa60048036038101906104a59190613226565b6111ba565b005b6104b461142a565b005b6104d060048036038101906104cb9190613196565b61143e565b6040516104dd91906144b4565b60405180910390f35b61050060048036038101906104fb919061328d565b6114d1565b005b61050a611631565b60405161051791906144b4565b60405180910390f35b61053a600480360381019061053591906130e2565b61163d565b005b6105566004803603810190610551919061328d565b6117f7565b60405161056896959493929190613f02565b60405180910390f35b610579611925565b6040516105869190613ee7565b60405180910390f35b61059761194f565b6040516105a49190614024565b60405180910390f35b6105b56119e1565b6040516105c29190613ee7565b60405180910390f35b6105e560048036038101906105e09190613196565b611a07565b6040516105f59493929190613fc4565b60405180910390f35b61061860048036038101906106139190613196565b611a74565b6040516106259190614009565b60405180910390f35b61064860048036038101906106439190613196565b611aeb565b6040516106559190614009565b60405180910390f35b610666611b0e565b005b610670611bfe565b60405161067d91906144b4565b60405180910390f35b6106a0600480360381019061069b91906132f2565b611c0d565b005b6106aa611dc2565b6040516106b791906144b4565b60405180910390f35b6106da60048036038101906106d5919061328d565b611dc8565b6040516106eb959493929190613f6a565b60405180910390f35b61070e6004803603810190610709919061310b565b611ec0565b60405161071b91906144b4565b60405180910390f35b61073e6004803603810190610739919061328d565b611f47565b005b61075a600480360381019061075591906130e2565b612158565b6040516107679190614009565b60405180910390f35b610778612178565b60405161078591906144b4565b60405180910390f35b6107a860048036038101906107a39190613196565b6121b5565b005b6107c460048036038101906107bf919061328d565b612304565b005b6107e060048036038101906107db91906130e2565b6123c4565b005b6107fc60048036038101906107f791906132b6565b612448565b005b600d5481565b60606003805461081390614713565b80601f016020809104026020016040519081016040528092919081815260200182805461083f90614713565b801561088c5780601f106108615761010080835404028352916020019161088c565b820191906000526020600020905b81548152906001019060200180831161086f57829003601f168201915b5050505050905090565b6000806108a161259c565b90506108ae8185856125a4565b600191505092915050565b6108c161276f565b600860003373ffffffffffffffffffffffffffffffffffffffff1673ffffffffffffffffffffffffffffffffffffffff16815260200190815260200160002060009054906101000a900460ff1661094d576040517f08c379a0000000000000000000000000000000000000000000000000000000008152600401610944906143b4565b60405180910390fd5b60008111610990576040517f08c379a000000000000000000000000000000000000000000000000000000000815260040161098790614354565b60405180910390fd5b8061099a33611172565b10156109db576040517f08c379a00000000000000000000000000000000000000000000000000000000081526004016109d2906141f4565b60405180910390fd5b6109e53082611aeb565b506000600e5490506040518060a001604052803373ffffffffffffffffffffffffffffffffffffffff16815260200184815260200183815260200160001515815260200160001515815250600b600083815260200190815260200160002060008201518160000160006101000a81548173ffffffffffffffffffffffffffffffffffffffff021916908373ffffffffffffffffffffffffffffffffffffffff1602179055506020820151816001019080519060200190610aa6929190612f98565b506040820151816002015560608201518160030160006101000a81548160ff02191690831515021790555060808201518160030160016101000a81548160ff021916908315150217905550905050600e6000815480929190610b0790614745565b91905055503373ffffffffffffffffffffffffffffffffffffffff16817fc97ad58e89bafa99b163ec269223d525c79fbfaf86962327ef9231217a9cac4b8585604051610b55929190614046565b60405180910390a350610b666127bf565b5050565b600960003373ffffffffffffffffffffffffffffffffffffffff1673ffffffffffffffffffffffffffffffffffffffff16815260200190815260200160002060009054906101000a900460ff16610bf6576040517f08c379a0000000000000000000000000000000000000000000000000000000008152600401610bed90614274565b60405180910390fd5b6001600960008373ffffffffffffffffffffffffffffffffffffffff1673ffffffffffffffffffffffffffffffffffffffff16815260200190815260200160002060006101000a81548160ff0219169083151502179055508073ffffffffffffffffffffffffffffffffffffffff167f78fadff4dd6915f9cf72214bb7e08255d6977203cba9c7d0e779202870dce4e160405160405180910390a250565b610c9c6127c9565b60008110158015610cae575060648111155b610ced576040517f08c379a0000000000000000000000000000000000000000000000000000000008152600401610ce4906140d4565b60405180910390fd5b80600c819055507f32a80662a42e8c8b641bbbbaa1b46c4e09b17feba9ad878369e3aa564aca72f881604051610d2391906144b4565b60405180910390a150565b6000600254905090565b600080610d4361259c565b9050610d50858285612847565b610d5b8585856128d3565b60019150509392505050565b600e5481565b60006012905090565b600080610d8161259c565b9050610da2818585610d938589611ec0565b610d9d9190614567565b6125a4565b600191505092915050565b60096020528060005260406000206000915054906101000a900460ff1681565b610dd56127c9565b80601060006101000a81548173ffffffffffffffffffffffffffffffffffffffff021916908373ffffffffffffffffffffffffffffffffffffffff16021790555050565b6000600a60003373ffffffffffffffffffffffffffffffffffffffff1673ffffffffffffffffffffffffffffffffffffffff1681526020019081526020016000208281548110610e92577f4e487b7100000000000000000000000000000000000000000000000000000000600052603260045260246000fd5b906000526020600020906004020190506000816003015414610ee9576040517f08c379a0000000000000000000000000000000000000000000000000000000008152600401610ee090614314565b60405180910390fd5b610ef8303383600101546128d3565b4281600301819055505050565b600960003373ffffffffffffffffffffffffffffffffffffffff1673ffffffffffffffffffffffffffffffffffffffff16815260200190815260200160002060009054906101000a900460ff16610f91576040517f08c379a0000000000000000000000000000000000000000000000000000000008152600401610f8890614194565b60405180910390fd5b6000600b600084815260200190815260200160002090508060030160009054906101000a900460ff16610ff9576040517f08c379a0000000000000000000000000000000000000000000000000000000008152600401610ff090614434565b60405180910390fd5b818160030160016101000a81548160ff02191690831515021790555081156110ae576000611049606461103b600c548560020154612b4b90919063ffffffff16565b612b6190919063ffffffff16565b90506000611064828460020154612b7790919063ffffffff16565b9050611095308460000160009054906101000a900473ffffffffffffffffffffffffffffffffffffffff16836128d3565b6110a7306110a1611925565b846128d3565b5050611135565b6110bd303383600201546128d3565b8060000160009054906101000a900473ffffffffffffffffffffffffffffffffffffffff1673ffffffffffffffffffffffffffffffffffffffff16837fa8c5218c4888faf8cb49e646c200737680b42893becc2352cdbe2c7a9bdbd850836002015460405161112c91906144b4565b60405180910390a35b827f9cda5f5e1c42c3931f282fe9c1b300ca7e3948bcec7557886b36aca3312c5a43836040516111659190614009565b60405180910390a2505050565b60008060008373ffffffffffffffffffffffffffffffffffffffff1673ffffffffffffffffffffffffffffffffffffffff168152602001908152602001600020549050919050565b600960003373ffffffffffffffffffffffffffffffffffffffff1673ffffffffffffffffffffffffffffffffffffffff16815260200190815260200160002060009054906101000a900460ff16611246576040517f08c379a000000000000000000000000000000000000000000000000000000000815260040161123d90614234565b60405180910390fd5b6000600f805490509050600f6040518060c001604052803373ffffffffffffffffffffffffffffffffffffffff1681526020018681526020018581526020016000151581526020018473ffffffffffffffffffffffffffffffffffffffff16815260200160001515815250908060018154018082558091505060019003906000526020600020906004020160009091909190915060008201518160000160006101000a81548173ffffffffffffffffffffffffffffffffffffffff021916908373ffffffffffffffffffffffffffffffffffffffff160217905550602082015181600101908051906020019061133d929190612f98565b506040820151816002015560608201518160030160006101000a81548160ff02191690831515021790555060808201518160030160016101000a81548173ffffffffffffffffffffffffffffffffffffffff021916908373ffffffffffffffffffffffffffffffffffffffff16021790555060a08201518160030160156101000a81548160ff02191690831515021790555050503373ffffffffffffffffffffffffffffffffffffffff16817fa412f9cf569f417e8bd00b013c6259a4e9acd7d0dacfd94cead726df237efa1e86868660405161141c93929190614076565b60405180910390a350505050565b6114326127c9565b61143c6000612b8d565b565b6000600a60008473ffffffffffffffffffffffffffffffffffffffff1673ffffffffffffffffffffffffffffffffffffffff16815260200190815260200160002082815481106114b7577f4e487b7100000000000000000000000000000000000000000000000000000000600052603260045260246000fd5b906000526020600020906004020160010154905092915050565b806114db33611172565b101561151c576040517f08c379a0000000000000000000000000000000000000000000000000000000008152600401611513906141f4565b60405180910390fd5b6115273330836128d3565b600a60003373ffffffffffffffffffffffffffffffffffffffff1673ffffffffffffffffffffffffffffffffffffffff16815260200190815260200160002060405180608001604052803373ffffffffffffffffffffffffffffffffffffffff1681526020018381526020014281526020016000815250908060018154018082558091505060019003906000526020600020906004020160009091909190915060008201518160000160006101000a81548173ffffffffffffffffffffffffffffffffffffffff021916908373ffffffffffffffffffffffffffffffffffffffff160217905550602082015181600101556040820151816002015560608201518160030155505050565b670de0b6b3a764000081565b600960003373ffffffffffffffffffffffffffffffffffffffff1673ffffffffffffffffffffffffffffffffffffffff16815260200190815260200160002060009054906101000a900460ff166116c9576040517f08c379a00000000000000000000000000000000000000000000000000000000081526004016116c0906143f4565b60405180910390fd5b6001600860008373ffffffffffffffffffffffffffffffffffffffff1673ffffffffffffffffffffffffffffffffffffffff16815260200190815260200160002060006101000a81548160ff0219169083151502179055506000600760008373ffffffffffffffffffffffffffffffffffffffff1673ffffffffffffffffffffffffffffffffffffffff168152602001908152602001600020600001819055506000600760008373ffffffffffffffffffffffffffffffffffffffff1673ffffffffffffffffffffffffffffffffffffffff168152602001908152602001600020600101819055508073ffffffffffffffffffffffffffffffffffffffff167f8a76eb268577bfb7e15df1151cfd0378609db465997555857ef4fcd3ede4c1f160405160405180910390a250565b600f818154811061180757600080fd5b90600052602060002090600402016000915090508060000160009054906101000a900473ffffffffffffffffffffffffffffffffffffffff169080600101805461185090614713565b80601f016020809104026020016040519081016040528092919081815260200182805461187c90614713565b80156118c95780601f1061189e576101008083540402835291602001916118c9565b820191906000526020600020905b8154815290600101906020018083116118ac57829003601f168201915b5050505050908060020154908060030160009054906101000a900460ff16908060030160019054906101000a900473ffffffffffffffffffffffffffffffffffffffff16908060030160159054906101000a900460ff16905086565b6000600560009054906101000a900473ffffffffffffffffffffffffffffffffffffffff16905090565b60606004805461195e90614713565b80601f016020809104026020016040519081016040528092919081815260200182805461198a90614713565b80156119d75780601f106119ac576101008083540402835291602001916119d7565b820191906000526020600020905b8154815290600101906020018083116119ba57829003601f168201915b5050505050905090565b601060009054906101000a900473ffffffffffffffffffffffffffffffffffffffff1681565b600a6020528160005260406000208181548110611a2357600080fd5b9060005260206000209060040201600091509150508060000160009054906101000a900473ffffffffffffffffffffffffffffffffffffffff16908060010154908060020154908060030154905084565b600080611a7f61259c565b90506000611a8d8286611ec0565b905083811015611ad2576040517f08c379a0000000000000000000000000000000000000000000000000000000008152600401611ac990614474565b60405180910390fd5b611adf82868684036125a4565b60019250505092915050565b600080611af661259c565b9050611b038185856128d3565b600191505092915050565b611b166127c9565b6000611b20612178565b9050670de0b6b3a7640000811115611b8c576000611b7a82611b6c611b56670de0b6b3a764000086612b7790919063ffffffff16565b611b5e610d2e565b612b4b90919063ffffffff16565b612b6190919063ffffffff16565b9050611b863082612c53565b50611bfb565b670de0b6b3a7640000811015611bfa576000611bec670de0b6b3a7640000611bde611bc885670de0b6b3a7640000612b7790919063ffffffff16565b611bd0610d2e565b612b4b90919063ffffffff16565b612b6190919063ffffffff16565b9050611bf83082612e21565b505b5b50565b6a115eec47f6cf7e3500000081565b601060009054906101000a900473ffffffffffffffffffffffffffffffffffffffff1673ffffffffffffffffffffffffffffffffffffffff163373ffffffffffffffffffffffffffffffffffffffff1614611c9d576040517f08c379a0000000000000000000000000000000000000000000000000000000008152600401611c94906140f4565b60405180910390fd5b6000600b600084815260200190815260200160002090508060030160009054906101000a900460ff16611d05576040517f08c379a0000000000000000000000000000000000000000000000000000000008152600401611cfc90614434565b60405180910390fd5b8060030160019054906101000a900460ff1615611d57576040517f08c379a0000000000000000000000000000000000000000000000000000000008152600401611d4e90614374565b60405180910390fd5b611d858160000160009054906101000a900473ffffffffffffffffffffffffffffffffffffffff1683612e21565b827fa3198b29210b6332fead0a009155d35e69a31c219ce25835a33c8d47174108ab83604051611db591906144b4565b60405180910390a2505050565b600c5481565b600b6020528060005260406000206000915090508060000160009054906101000a900473ffffffffffffffffffffffffffffffffffffffff1690806001018054611e1190614713565b80601f0160208091040260200160405190810160405280929190818152602001828054611e3d90614713565b8015611e8a5780601f10611e5f57610100808354040283529160200191611e8a565b820191906000526020600020905b815481529060010190602001808311611e6d57829003601f168201915b5050505050908060020154908060030160009054906101000a900460ff16908060030160019054906101000a900460ff16905085565b6000600160008473ffffffffffffffffffffffffffffffffffffffff1673ffffffffffffffffffffffffffffffffffffffff16815260200190815260200160002060008373ffffffffffffffffffffffffffffffffffffffff1673ffffffffffffffffffffffffffffffffffffffff16815260200190815260200160002054905092915050565b6000600f8281548110611f83577f4e487b7100000000000000000000000000000000000000000000000000000000600052603260045260246000fd5b906000526020600020906004020190503373ffffffffffffffffffffffffffffffffffffffff168160030160019054906101000a900473ffffffffffffffffffffffffffffffffffffffff1673ffffffffffffffffffffffffffffffffffffffff1614612025576040517f08c379a000000000000000000000000000000000000000000000000000000000815260040161201c90614214565b60405180910390fd5b600015158160030160009054906101000a900460ff1615151461207d576040517f08c379a000000000000000000000000000000000000000000000000000000000815260040161207490614294565b60405180910390fd5b60018160030160006101000a81548160ff0219169083151502179055506000600760003373ffffffffffffffffffffffffffffffffffffffff1673ffffffffffffffffffffffffffffffffffffffff16815260200190815260200160002090506120f882600201548260000154612f7890919063ffffffff16565b81600001819055503373ffffffffffffffffffffffffffffffffffffffff16837f843af93d40addceac6932508439844b897d4df9e971db326d557e3cdaa9f3ebf846002015460405161214b91906144b4565b60405180910390a3505050565b60086020528060005260406000206000915054906101000a900460ff1681565b60006121b0612185610d2e565b6121a2670de0b6b3a7640000600d54612b4b90919063ffffffff16565b612b6190919063ffffffff16565b905090565b600960003373ffffffffffffffffffffffffffffffffffffffff1673ffffffffffffffffffffffffffffffffffffffff16815260200190815260200160002060009054906101000a900460ff16612241576040517f08c379a000000000000000000000000000000000000000000000000000000000815260040161223890614254565b60405180910390fd5b6a115eec47f6cf7e3500000061226782612259610d2e565b612f7890919063ffffffff16565b11156122a8576040517f08c379a000000000000000000000000000000000000000000000000000000000815260040161229f90614454565b60405180910390fd5b6122b28282612e21565b8173ffffffffffffffffffffffffffffffffffffffff167f3f2c9d57c068687834f0de942a9babb9e5acab57d516d3480a3c16ee165a4273826040516122f891906144b4565b60405180910390a25050565b60008111612347576040517f08c379a000000000000000000000000000000000000000000000000000000000815260040161233e90614174565b60405180910390fd5b612373601060009054906101000a900473ffffffffffffffffffffffffffffffffffffffff1682612e21565b3373ffffffffffffffffffffffffffffffffffffffff167f264f630d9efa0d07053a31163641d9fcc0adafc9d9e76f1c37c2ce3a558d2c52826040516123b991906144b4565b60405180910390a250565b6123cc6127c9565b600073ffffffffffffffffffffffffffffffffffffffff168173ffffffffffffffffffffffffffffffffffffffff16141561243c576040517f08c379a000000000000000000000000000000000000000000000000000000000815260040161243390614134565b60405180910390fd5b61244581612b8d565b50565b600960003373ffffffffffffffffffffffffffffffffffffffff1673ffffffffffffffffffffffffffffffffffffffff16815260200190815260200160002060009054906101000a900460ff166124d4576040517f08c379a00000000000000000000000000000000000000000000000000000000081526004016124cb906142b4565b60405180910390fd5b6000600b60008481526020019081526020016000209050600015158160030160009054906101000a900460ff16151514612543576040517f08c379a000000000000000000000000000000000000000000000000000000000815260040161253a906143d4565b60405180910390fd5b818160030160006101000a81548160ff021916908315150217905550827f834b15fc22ef38f6369b26611438cf75325615c41b839147963b157e7205133d8360405161258f9190614009565b60405180910390a2505050565b600033905090565b600073ffffffffffffffffffffffffffffffffffffffff168373ffffffffffffffffffffffffffffffffffffffff161415612614576040517f08c379a000000000000000000000000000000000000000000000000000000000815260040161260b90614394565b60405180910390fd5b600073ffffffffffffffffffffffffffffffffffffffff168273ffffffffffffffffffffffffffffffffffffffff161415612684576040517f08c379a000000000000000000000000000000000000000000000000000000000815260040161267b90614154565b60405180910390fd5b80600160008573ffffffffffffffffffffffffffffffffffffffff1673ffffffffffffffffffffffffffffffffffffffff16815260200190815260200160002060008473ffffffffffffffffffffffffffffffffffffffff1673ffffffffffffffffffffffffffffffffffffffff168152602001908152602001600020819055508173ffffffffffffffffffffffffffffffffffffffff168373ffffffffffffffffffffffffffffffffffffffff167f8c5be1e5ebec7d5bd14f71427d1e84f3dd0314c0f7b2291e5b200ac8c7c3b9258360405161276291906144b4565b60405180910390a3505050565b600260065414156127b5576040517f08c379a00000000000000000000000000000000000000000000000000000000081526004016127ac90614414565b60405180910390fd5b6002600681905550565b6001600681905550565b6127d161259c565b73ffffffffffffffffffffffffffffffffffffffff166127ef611925565b73ffffffffffffffffffffffffffffffffffffffff1614612845576040517f08c379a000000000000000000000000000000000000000000000000000000000815260040161283c906142d4565b60405180910390fd5b565b60006128538484611ec0565b90507fffffffffffffffffffffffffffffffffffffffffffffffffffffffffffffffff81146128cd57818110156128bf576040517f08c379a00000000000000000000000000000000000000000000000000000000081526004016128b6906141b4565b60405180910390fd5b6128cc84848484036125a4565b5b50505050565b600073ffffffffffffffffffffffffffffffffffffffff168373ffffffffffffffffffffffffffffffffffffffff161415612943576040517f08c379a000000000000000000000000000000000000000000000000000000000815260040161293a90614334565b60405180910390fd5b600073ffffffffffffffffffffffffffffffffffffffff168273ffffffffffffffffffffffffffffffffffffffff1614156129b3576040517f08c379a00000000000000000000000000000000000000000000000000000000081526004016129aa906140b4565b60405180910390fd5b6129be838383612f8e565b60008060008573ffffffffffffffffffffffffffffffffffffffff1673ffffffffffffffffffffffffffffffffffffffff16815260200190815260200160002054905081811015612a44576040517f08c379a0000000000000000000000000000000000000000000000000000000008152600401612a3b906141d4565b60405180910390fd5b8181036000808673ffffffffffffffffffffffffffffffffffffffff1673ffffffffffffffffffffffffffffffffffffffff16815260200190815260200160002081905550816000808573ffffffffffffffffffffffffffffffffffffffff1673ffffffffffffffffffffffffffffffffffffffff168152602001908152602001600020600082825401925050819055508273ffffffffffffffffffffffffffffffffffffffff168473ffffffffffffffffffffffffffffffffffffffff167fddf252ad1be2c89b69c2b068fc378daa952ba7f163c4a11628f55a4df523b3ef84604051612b3291906144b4565b60405180910390a3612b45848484612f93565b50505050565b60008183612b5991906145ee565b905092915050565b60008183612b6f91906145bd565b905092915050565b60008183612b859190614648565b905092915050565b6000600560009054906101000a900473ffffffffffffffffffffffffffffffffffffffff16905081600560006101000a81548173ffffffffffffffffffffffffffffffffffffffff021916908373ffffffffffffffffffffffffffffffffffffffff1602179055508173ffffffffffffffffffffffffffffffffffffffff168173ffffffffffffffffffffffffffffffffffffffff167f8be0079c531659141344cd1fd0a4f28419497f9722a3daafe3b4186f6b6457e060405160405180910390a35050565b600073ffffffffffffffffffffffffffffffffffffffff168273ffffffffffffffffffffffffffffffffffffffff161415612cc3576040517f08c379a0000000000000000000000000000000000000000000000000000000008152600401612cba906142f4565b60405180910390fd5b612ccf82600083612f8e565b60008060008473ffffffffffffffffffffffffffffffffffffffff1673ffffffffffffffffffffffffffffffffffffffff16815260200190815260200160002054905081811015612d55576040517f08c379a0000000000000000000000000000000000000000000000000000000008152600401612d4c90614114565b60405180910390fd5b8181036000808573ffffffffffffffffffffffffffffffffffffffff1673ffffffffffffffffffffffffffffffffffffffff1681526020019081526020016000208190555081600260008282540392505081905550600073ffffffffffffffffffffffffffffffffffffffff168373ffffffffffffffffffffffffffffffffffffffff167fddf252ad1be2c89b69c2b068fc378daa952ba7f163c4a11628f55a4df523b3ef84604051612e0891906144b4565b60405180910390a3612e1c83600084612f93565b505050565b600073ffffffffffffffffffffffffffffffffffffffff168273ffffffffffffffffffffffffffffffffffffffff161415612e91576040517f08c379a0000000000000000000000000000000000000000000000000000000008152600401612e8890614494565b60405180910390fd5b612e9d60008383612f8e565b8060026000828254612eaf9190614567565b92505081905550806000808473ffffffffffffffffffffffffffffffffffffffff1673ffffffffffffffffffffffffffffffffffffffff168152602001908152602001600020600082825401925050819055508173ffffffffffffffffffffffffffffffffffffffff16600073ffffffffffffffffffffffffffffffffffffffff167fddf252ad1be2c89b69c2b068fc378daa952ba7f163c4a11628f55a4df523b3ef83604051612f6091906144b4565b60405180910390a3612f7460008383612f93565b5050565b60008183612f869190614567565b905092915050565b505050565b505050565b828054612fa490614713565b90600052602060002090601f016020900481019282612fc6576000855561300d565b82601f10612fdf57805160ff191683800117855561300d565b8280016001018555821561300d579182015b8281111561300c578251825591602001919060010190612ff1565b5b50905061301a919061301e565b5090565b5b8082111561303757600081600090555060010161301f565b5090565b600061304e6130498461451b565b6144ea565b90508281526020810184848401111561306657600080fd5b6130718482856146d1565b509392505050565b6000813590506130888161485b565b92915050565b60008135905061309d81614872565b92915050565b600082601f8301126130b457600080fd5b81356130c484826020860161303b565b91505092915050565b6000813590506130dc81614889565b92915050565b6000602082840312156130f457600080fd5b600061310284828501613079565b91505092915050565b6000806040838503121561311e57600080fd5b600061312c85828601613079565b925050602061313d85828601613079565b9150509250929050565b60008060006060848603121561315c57600080fd5b600061316a86828701613079565b935050602061317b86828701613079565b925050604061318c868287016130cd565b9150509250925092565b600080604083850312156131a957600080fd5b60006131b785828601613079565b92505060206131c8858286016130cd565b9150509250929050565b600080604083850312156131e557600080fd5b600083013567ffffffffffffffff8111156131ff57600080fd5b61320b858286016130a3565b925050602061321c858286016130cd565b9150509250929050565b60008060006060848603121561323b57600080fd5b600084013567ffffffffffffffff81111561325557600080fd5b613261868287016130a3565b9350506020613272868287016130cd565b925050604061328386828701613079565b9150509250925092565b60006020828403121561329f57600080fd5b60006132ad848285016130cd565b91505092915050565b600080604083850312156132c957600080fd5b60006132d7858286016130cd565b92505060206132e88582860161308e565b9150509250929050565b6000806040838503121561330557600080fd5b6000613313858286016130cd565b9250506020613324858286016130cd565b9150509250929050565b6133378161467c565b82525050565b6133468161468e565b82525050565b60006133578261454b565b6133618185614556565b93506133718185602086016146e0565b61337a8161484a565b840191505092915050565b6000613392602383614556565b91507f45524332303a207472616e7366657220746f20746865207a65726f206164647260008301527f65737300000000000000000000000000000000000000000000000000000000006020830152604082019050919050565b60006133f8601e83614556565b91507f496e76616c6964207374616b696e67206665652070657263656e7461676500006000830152602082019050919050565b6000613438603383614556565b91507f4f6e6c7920746865206f7267616e697a6174696f6e206163636f756e7420636160008301527f6e206d696e7420666f722070726f6a65637473000000000000000000000000006020830152604082019050919050565b600061349e602283614556565b91507f45524332303a206275726e20616d6f756e7420657863656564732062616c616e60008301527f63650000000000000000000000000000000000000000000000000000000000006020830152604082019050919050565b6000613504602683614556565b91507f4f776e61626c653a206e6577206f776e657220697320746865207a65726f206160008301527f64647265737300000000000000000000000000000000000000000000000000006020830152604082019050919050565b600061356a602283614556565b91507f45524332303a20617070726f766520746f20746865207a65726f20616464726560008301527f73730000000000000000000000000000000000000000000000000000000000006020830152604082019050919050565b60006135d0602683614556565b91507f446f6e6174696f6e20616d6f756e74206d75737420626520677265617465722060008301527f7468616e203000000000000000000000000000000000000000000000000000006020830152604082019050919050565b6000613636603583614556565b91507f4f6e6c792070726f6a656374206d616e61676572732063616e2075706461746560008301527f2070726f6a6563742064656c6976657261626c657300000000000000000000006020830152604082019050919050565b600061369c601d83614556565b91507f45524332303a20696e73756666696369656e7420616c6c6f77616e63650000006000830152602082019050919050565b60006136dc602683614556565b91507f45524332303a207472616e7366657220616d6f756e742065786365656473206260008301527f616c616e636500000000000000000000000000000000000000000000000000006020830152604082019050919050565b6000613742601483614556565b91507f496e73756666696369656e742062616c616e63650000000000000000000000006000830152602082019050919050565b6000613782603183614556565b91507f4f6e6c79207468652061737369676e656420766f6c756e746565722063616e2060008301527f636f6d706c65746520746865207461736b0000000000000000000000000000006020830152604082019050919050565b60006137e8602383614556565b91507f4f6e6c792070726f6a656374206d616e61676572732063616e2061646420746160008301527f736b7300000000000000000000000000000000000000000000000000000000006020830152604082019050919050565b600061384e602583614556565b91507f4f6e6c792070726f6a656374206d616e61676572732063616e206d696e74207460008301527f6f6b656e730000000000000000000000000000000000000000000000000000006020830152604082019050919050565b60006138b4603b83614556565b91507f4f6e6c79206578697374696e672070726f6a656374206d616e6167657273206360008301527f616e20616464206e65772070726f6a656374206d616e616765727300000000006020830152604082019050919050565b600061391a601983614556565b91507f5461736b20697320616c726561647920636f6d706c65746564000000000000006000830152602082019050919050565b600061395a602c83614556565b91507f4f6e6c792070726f6a656374206d616e61676572732063616e2076616c69646160008301527f74652070726f706f73616c7300000000000000000000000000000000000000006020830152604082019050919050565b60006139c0602083614556565b91507f4f776e61626c653a2063616c6c6572206973206e6f7420746865206f776e65726000830152602082019050919050565b6000613a00602183614556565b91507f45524332303a206275726e2066726f6d20746865207a65726f2061646472657360008301527f73000000000000000000000000000000000000000000000000000000000000006020830152604082019050919050565b6000613a66601b83614556565b91507f546f6b656e732061726520616c726561647920756e7374616b656400000000006000830152602082019050919050565b6000613aa6602583614556565b91507f45524332303a207472616e736665722066726f6d20746865207a65726f20616460008301527f64726573730000000000000000000000000000000000000000000000000000006020830152604082019050919050565b6000613b0c602583614556565b91507f5374616b696e6720616d6f756e74206d7573742062652067726561746572207460008301527f68616e20300000000000000000000000000000000000000000000000000000006020830152604082019050919050565b6000613b72602483614556565b91507f50726f6a6563742064656c6976657261626c65732061726520616c726561647960008301527f206d6574000000000000000000000000000000000000000000000000000000006020830152604082019050919050565b6000613bd8602483614556565b91507f45524332303a20617070726f76652066726f6d20746865207a65726f2061646460008301527f72657373000000000000000000000000000000000000000000000000000000006020830152604082019050919050565b6000613c3e602483614556565b91507f4f6e6c7920766f6c756e74656572732063616e2070726f706f73652070726f6a60008301527f65637473000000000000000000000000000000000000000000000000000000006020830152604082019050919050565b6000613ca4601d83614556565b91507f50726f706f73616c20697320616c72656164792076616c6964617465640000006000830152602082019050919050565b6000613ce4602883614556565b91507f4f6e6c792070726f6a656374206d616e61676572732063616e2061646420766f60008301527f6c756e74656572730000000000000000000000000000000000000000000000006020830152604082019050919050565b6000613d4a601f83614556565b91507f5265656e7472616e637947756172643a207265656e7472616e742063616c6c006000830152602082019050919050565b6000613d8a602083614556565b91507f50726f706f73616c206d7573742062652076616c6964617465642066697273746000830152602082019050919050565b6000613dca602183614556565b91507f4d696e74696e6720776f756c642065786365656420746f74616c20737570706c60008301527f79000000000000000000000000000000000000000000000000000000000000006020830152604082019050919050565b6000613e30602583614556565b91507f45524332303a2064656372656173656420616c6c6f77616e63652062656c6f7760008301527f207a65726f0000000000000000000000000000000000000000000000000000006020830152604082019050919050565b6000613e96601f83614556565b91507f45524332303a206d696e7420746f20746865207a65726f2061646472657373006000830152602082019050919050565b613ed2816146ba565b82525050565b613ee1816146c4565b82525050565b6000602082019050613efc600083018461332e565b92915050565b600060c082019050613f17600083018961332e565b8181036020830152613f29818861334c565b9050613f386040830187613ec9565b613f45606083018661333d565b613f52608083018561332e565b613f5f60a083018461333d565b979650505050505050565b600060a082019050613f7f600083018861332e565b8181036020830152613f91818761334c565b9050613fa06040830186613ec9565b613fad606083018561333d565b613fba608083018461333d565b9695505050505050565b6000608082019050613fd9600083018761332e565b613fe66020830186613ec9565b613ff36040830185613ec9565b6140006060830184613ec9565b95945050505050565b600060208201905061401e600083018461333d565b92915050565b6000602082019050818103600083015261403e818461334c565b905092915050565b60006040820190508181036000830152614060818561334c565b905061406f6020830184613ec9565b9392505050565b60006060820190508181036000830152614090818661334c565b905061409f6020830185613ec9565b6140ac604083018461332e565b949350505050565b600060208201905081810360008301526140cd81613385565b9050919050565b600060208201905081810360008301526140ed816133eb565b9050919050565b6000602082019050818103600083015261410d8161342b565b9050919050565b6000602082019050818103600083015261412d81613491565b9050919050565b6000602082019050818103600083015261414d816134f7565b9050919050565b6000602082019050818103600083015261416d8161355d565b9050919050565b6000602082019050818103600083015261418d816135c3565b9050919050565b600060208201905081810360008301526141ad81613629565b9050919050565b600060208201905081810360008301526141cd8161368f565b9050919050565b600060208201905081810360008301526141ed816136cf565b9050919050565b6000602082019050818103600083015261420d81613735565b9050919050565b6000602082019050818103600083015261422d81613775565b9050919050565b6000602082019050818103600083015261424d816137db565b9050919050565b6000602082019050818103600083015261426d81613841565b9050919050565b6000602082019050818103600083015261428d816138a7565b9050919050565b600060208201905081810360008301526142ad8161390d565b9050919050565b600060208201905081810360008301526142cd8161394d565b9050919050565b600060208201905081810360008301526142ed816139b3565b9050919050565b6000602082019050818103600083015261430d816139f3565b9050919050565b6000602082019050818103600083015261432d81613a59565b9050919050565b6000602082019050818103600083015261434d81613a99565b9050919050565b6000602082019050818103600083015261436d81613aff565b9050919050565b6000602082019050818103600083015261438d81613b65565b9050919050565b600060208201905081810360008301526143ad81613bcb565b9050919050565b600060208201905081810360008301526143cd81613c31565b9050919050565b600060208201905081810360008301526143ed81613c97565b9050919050565b6000602082019050818103600083015261440d81613cd7565b9050919050565b6000602082019050818103600083015261442d81613d3d565b9050919050565b6000602082019050818103600083015261444d81613d7d565b9050919050565b6000602082019050818103600083015261446d81613dbd565b9050919050565b6000602082019050818103600083015261448d81613e23565b9050919050565b600060208201905081810360008301526144ad81613e89565b9050919050565b60006020820190506144c96000830184613ec9565b92915050565b60006020820190506144e46000830184613ed8565b92915050565b6000604051905081810181811067ffffffffffffffff821117156145115761451061481b565b5b8060405250919050565b600067ffffffffffffffff8211156145365761453561481b565b5b601f19601f8301169050602081019050919050565b600081519050919050565b600082825260208201905092915050565b6000614572826146ba565b915061457d836146ba565b9250827fffffffffffffffffffffffffffffffffffffffffffffffffffffffffffffffff038211156145b2576145b161478e565b5b828201905092915050565b60006145c8826146ba565b91506145d3836146ba565b9250826145e3576145e26147bd565b5b828204905092915050565b60006145f9826146ba565b9150614604836146ba565b9250817fffffffffffffffffffffffffffffffffffffffffffffffffffffffffffffffff048311821515161561463d5761463c61478e565b5b828202905092915050565b6000614653826146ba565b915061465e836146ba565b9250828210156146715761467061478e565b5b828203905092915050565b60006146878261469a565b9050919050565b60008115159050919050565b600073ffffffffffffffffffffffffffffffffffffffff82169050919050565b6000819050919050565b600060ff82169050919050565b82818337600083830152505050565b60005b838110156146fe5780820151818401526020810190506146e3565b8381111561470d576000848401525b50505050565b6000600282049050600182168061472b57607f821691505b6020821081141561473f5761473e6147ec565b5b50919050565b6000614750826146ba565b91507fffffffffffffffffffffffffffffffffffffffffffffffffffffffffffffffff8214156147835761478261478e565b5b600182019050919050565b7f4e487b7100000000000000000000000000000000000000000000000000000000600052601160045260246000fd5b7f4e487b7100000000000000000000000000000000000000000000000000000000600052601260045260246000fd5b7f4e487b7100000000000000000000000000000000000000000000000000000000600052602260045260246000fd5b7f4e487b7100000000000000000000000000000000000000000000000000000000600052604160045260246000fd5b6000601f19601f8301169050919050565b6148648161467c565b811461486f57600080fd5b50565b61487b8161468e565b811461488657600080fd5b50565b614892816146ba565b811461489d57600080fd5b5056fea2646970667358221220f3e9babe9159cc767ec12e8058689fd1158f958d986b55e9c583d4375590ce3064736f6c63430008000033",
  "linkReferences": {},
  "deployedLinkReferences": {}
}