{
  "_format": "hh-sol-artifact-1",
  "contractName": "UNCollaboration",
  "sourceName": "contracts/UnicoinsV8.sol",
  "abi": [
    {
      "inputs": [],
      "stateMutability": "nonpayable",
      "type": "constructor"
    },
    {
      "anonymous": false,
      "inputs": [
        {
          "indexed": true,
          "internalType": "address",
          "name": "owner",
          "type": "address"
        },
        {
          "indexed": true,
          "internalType": "address",
          "name": "spender",
          "type": "address"
        },
        {
          "indexed": false,
          "internalType": "uint256",
          "name": "value",
          "type": "uint256"
        }
      ],
      "name": "Approval",
      "type": "event"
    },
    {
      "anonymous": false,
      "inputs": [
        {
          "indexed": true,
          "internalType": "address",
          "name": "donor",
          "type": "address"
        },
        {
          "indexed": false,
          "internalType": "uint256",
          "name": "amount",
          "type": "uint256"
        }
      ],
      "name": "DonationReceived",
      "type": "event"
    },
    {
      "anonymous": false,
      "inputs": [
        {
          "indexed": true,
          "internalType": "address",
          "name": "previousOwner",
          "type": "address"
        },
        {
          "indexed": true,
          "internalType": "address",
          "name": "newOwner",
          "type": "address"
        }
      ],
      "name": "OwnershipTransferred",
      "type": "event"
    },
    {
      "anonymous": false,
      "inputs": [
        {
          "indexed": true,
          "internalType": "uint256",
          "name": "proposalId",
          "type": "uint256"
        },
        {
          "indexed": false,
          "internalType": "bool",
          "name": "deliverablesMet",
          "type": "bool"
        }
      ],
      "name": "ProjectDeliverablesUpdated",
      "type": "event"
    },
    {
      "anonymous": false,
      "inputs": [
        {
          "indexed": true,
          "internalType": "address",
          "name": "projectManager",
          "type": "address"
        }
      ],
      "name": "ProjectManagerAdded",
      "type": "event"
    },
    {
      "anonymous": false,
      "inputs": [
        {
          "indexed": true,
          "internalType": "uint256",
          "name": "proposalId",
          "type": "uint256"
        },
        {
          "indexed": true,
          "internalType": "address",
          "name": "proposer",
          "type": "address"
        },
        {
          "indexed": false,
          "internalType": "string",
          "name": "projectDescription",
          "type": "string"
        },
        {
          "indexed": false,
          "internalType": "uint256",
          "name": "stakedAmount",
          "type": "uint256"
        }
      ],
      "name": "ProjectProposalAdded",
      "type": "event"
    },
    {
      "anonymous": false,
      "inputs": [
        {
          "indexed": true,
          "internalType": "uint256",
          "name": "proposalId",
          "type": "uint256"
        },
        {
          "indexed": false,
          "internalType": "bool",
          "name": "validated",
          "type": "bool"
        }
      ],
      "name": "ProjectProposalValidated",
      "type": "event"
    },
    {
      "anonymous": false,
      "inputs": [
        {
          "indexed": true,
          "internalType": "uint256",
          "name": "proposalId",
          "type": "uint256"
        },
        {
          "indexed": true,
          "internalType": "address",
          "name": "proposer",
          "type": "address"
        },
        {
          "indexed": false,
          "internalType": "uint256",
          "name": "stakedAmount",
          "type": "uint256"
        }
      ],
      "name": "ProjectStakeForfeited",
      "type": "event"
    },
    {
      "anonymous": false,
      "inputs": [
        {
          "indexed": false,
          "internalType": "uint256",
          "name": "newPercentage",
          "type": "uint256"
        }
      ],
      "name": "StakingFeePercentageChanged",
      "type": "event"
    },
    {
      "anonymous": false,
      "inputs": [
        {
          "indexed": true,
          "internalType": "uint256",
          "name": "taskId",
          "type": "uint256"
        },
        {
          "indexed": true,
          "internalType": "address",
          "name": "projectManager",
          "type": "address"
        },
        {
          "indexed": false,
          "internalType": "string",
          "name": "taskDescription",
          "type": "string"
        },
        {
          "indexed": false,
          "internalType": "uint256",
          "name": "reward",
          "type": "uint256"
        },
        {
          "indexed": false,
          "internalType": "address",
          "name": "volunteer",
          "type": "address"
        }
      ],
      "name": "TaskAdded",
      "type": "event"
    },
    {
      "anonymous": false,
      "inputs": [
        {
          "indexed": true,
          "internalType": "uint256",
          "name": "taskId",
          "type": "uint256"
        },
        {
          "indexed": true,
          "internalType": "address",
          "name": "volunteer",
          "type": "address"
        },
        {
          "indexed": false,
          "internalType": "uint256",
          "name": "reward",
          "type": "uint256"
        }
      ],
      "name": "TaskCompleted",
      "type": "event"
    },
    {
      "anonymous": false,
      "inputs": [
        {
          "indexed": true,
          "internalType": "address",
          "name": "receiver",
          "type": "address"
        },
        {
          "indexed": false,
          "internalType": "uint256",
          "name": "amount",
          "type": "uint256"
        }
      ],
      "name": "TokensMinted",
      "type": "event"
    },
    {
      "anonymous": false,
      "inputs": [
        {
          "indexed": true,
          "internalType": "address",
          "name": "from",
          "type": "address"
        },
        {
          "indexed": true,
          "internalType": "address",
          "name": "to",
          "type": "address"
        },
        {
          "indexed": false,
          "internalType": "uint256",
          "name": "value",
          "type": "uint256"
        }
      ],
      "name": "Transfer",
      "type": "event"
    },
    {
      "anonymous": false,
      "inputs": [
        {
          "indexed": true,
          "internalType": "uint256",
          "name": "proposalId",
          "type": "uint256"
        },
        {
          "indexed": false,
          "internalType": "uint256",
          "name": "amount",
          "type": "uint256"
        }
      ],
      "name": "UNicoinsMintedForProject",
      "type": "event"
    },
    {
      "anonymous": false,
      "inputs": [
        {
          "indexed": true,
          "internalType": "address",
          "name": "volunteer",
          "type": "address"
        }
      ],
      "name": "VolunteerAdded",
      "type": "event"
    },
    {
      "inputs": [],
      "name": "TARGET_PRICE",
      "outputs": [
        {
          "internalType": "uint256",
          "name": "",
          "type": "uint256"
        }
      ],
      "stateMutability": "view",
      "type": "function"
    },
    {
      "inputs": [],
      "name": "TOTAL_UNICOINS",
      "outputs": [
        {
          "internalType": "uint256",
          "name": "",
          "type": "uint256"
        }
      ],
      "stateMutability": "view",
      "type": "function"
    },
    {
      "inputs": [
        {
          "internalType": "address",
          "name": "projectManager",
          "type": "address"
        }
      ],
      "name": "addProjectManager",
      "outputs": [],
      "stateMutability": "nonpayable",
      "type": "function"
    },
    {
      "inputs": [
        {
          "internalType": "string",
          "name": "taskDescription",
          "type": "string"
        },
        {
          "internalType": "uint256",
          "name": "reward",
          "type": "uint256"
        },
        {
          "internalType": "address",
          "name": "volunteer",
          "type": "address"
        }
      ],
      "name": "addTask",
      "outputs": [],
      "stateMutability": "nonpayable",
      "type": "function"
    },
    {
      "inputs": [
        {
          "internalType": "address",
          "name": "volunteer",
          "type": "address"
        }
      ],
      "name": "addVolunteer",
      "outputs": [],
      "stateMutability": "nonpayable",
      "type": "function"
    },
    {
      "inputs": [
        {
          "internalType": "address",
          "name": "owner",
          "type": "address"
        },
        {
          "internalType": "address",
          "name": "spender",
          "type": "address"
        }
      ],
      "name": "allowance",
      "outputs": [
        {
          "internalType": "uint256",
          "name": "",
          "type": "uint256"
        }
      ],
      "stateMutability": "view",
      "type": "function"
    },
    {
      "inputs": [
        {
          "internalType": "address",
          "name": "spender",
          "type": "address"
        },
        {
          "internalType": "uint256",
          "name": "amount",
          "type": "uint256"
        }
      ],
      "name": "approve",
      "outputs": [
        {
          "internalType": "bool",
          "name": "",
          "type": "bool"
        }
      ],
      "stateMutability": "nonpayable",
      "type": "function"
    },
    {
      "inputs": [
        {
          "internalType": "address",
          "name": "account",
          "type": "address"
        }
      ],
      "name": "balanceOf",
      "outputs": [
        {
          "internalType": "uint256",
          "name": "",
          "type": "uint256"
        }
      ],
      "stateMutability": "view",
      "type": "function"
    },
    {
      "inputs": [
        {
          "internalType": "uint256",
          "name": "taskIndex",
          "type": "uint256"
        }
      ],
      "name": "completeTask",
      "outputs": [],
      "stateMutability": "nonpayable",
      "type": "function"
    },
    {
      "inputs": [],
      "name": "decimals",
      "outputs": [
        {
          "internalType": "uint8",
          "name": "",
          "type": "uint8"
        }
      ],
      "stateMutability": "view",
      "type": "function"
    },
    {
      "inputs": [
        {
          "internalType": "address",
          "name": "spender",
          "type": "address"
        },
        {
          "internalType": "uint256",
          "name": "subtractedValue",
          "type": "uint256"
        }
      ],
      "name": "decreaseAllowance",
      "outputs": [
        {
          "internalType": "bool",
          "name": "",
          "type": "bool"
        }
      ],
      "stateMutability": "nonpayable",
      "type": "function"
    },
    {
      "inputs": [
        {
          "internalType": "uint256",
          "name": "amount",
          "type": "uint256"
        }
      ],
      "name": "donate",
      "outputs": [],
      "stateMutability": "nonpayable",
      "type": "function"
    },
    {
      "inputs": [],
      "name": "getCurrentPrice",
      "outputs": [
        {
          "internalType": "uint256",
          "name": "",
          "type": "uint256"
        }
      ],
      "stateMutability": "view",
      "type": "function"
    },
    {
      "inputs": [
        {
          "internalType": "address",
          "name": "spender",
          "type": "address"
        },
        {
          "internalType": "uint256",
          "name": "addedValue",
          "type": "uint256"
        }
      ],
      "name": "increaseAllowance",
      "outputs": [
        {
          "internalType": "bool",
          "name": "",
          "type": "bool"
        }
      ],
      "stateMutability": "nonpayable",
      "type": "function"
    },
    {
      "inputs": [
        {
          "internalType": "uint256",
          "name": "proposalId",
          "type": "uint256"
        },
        {
          "internalType": "uint256",
          "name": "amount",
          "type": "uint256"
        }
      ],
      "name": "mintForProject",
      "outputs": [],
      "stateMutability": "nonpayable",
      "type": "function"
    },
    {
      "inputs": [
        {
          "internalType": "address",
          "name": "receiver",
          "type": "address"
        },
        {
          "internalType": "uint256",
          "name": "amount",
          "type": "uint256"
        }
      ],
      "name": "mintTokens",
      "outputs": [],
      "stateMutability": "nonpayable",
      "type": "function"
    },
    {
      "inputs": [],
      "name": "name",
      "outputs": [
        {
          "internalType": "string",
          "name": "",
          "type": "string"
        }
      ],
      "stateMutability": "view",
      "type": "function"
    },
    {
      "inputs": [],
      "name": "nextProposalId",
      "outputs": [
        {
          "internalType": "uint256",
          "name": "",
          "type": "uint256"
        }
      ],
      "stateMutability": "view",
      "type": "function"
    },
    {
      "inputs": [],
      "name": "organizationAccount",
      "outputs": [
        {
          "internalType": "address",
          "name": "",
          "type": "address"
        }
      ],
      "stateMutability": "view",
      "type": "function"
    },
    {
      "inputs": [],
      "name": "owner",
      "outputs": [
        {
          "internalType": "address",
          "name": "",
          "type": "address"
        }
      ],
      "stateMutability": "view",
      "type": "function"
    },
    {
      "inputs": [
        {
          "internalType": "address",
          "name": "",
          "type": "address"
        }
      ],
      "name": "projectManagers",
      "outputs": [
        {
          "internalType": "bool",
          "name": "",
          "type": "bool"
        }
      ],
      "stateMutability": "view",
      "type": "function"
    },
    {
      "inputs": [
        {
          "internalType": "uint256",
          "name": "",
          "type": "uint256"
        }
      ],
      "name": "projectProposals",
      "outputs": [
        {
          "internalType": "address",
          "name": "proposer",
          "type": "address"
        },
        {
          "internalType": "string",
          "name": "projectDescription",
          "type": "string"
        },
        {
          "internalType": "uint256",
          "name": "stakedAmount",
          "type": "uint256"
        },
        {
          "internalType": "bool",
          "name": "validated",
          "type": "bool"
        },
        {
          "internalType": "bool",
          "name": "deliverablesMet",
          "type": "bool"
        }
      ],
      "stateMutability": "view",
      "type": "function"
    },
    {
      "inputs": [
        {
          "internalType": "string",
          "name": "projectDescription",
          "type": "string"
        },
        {
          "internalType": "uint256",
          "name": "stakingAmount",
          "type": "uint256"
        }
      ],
      "name": "proposeProject",
      "outputs": [],
      "stateMutability": "nonpayable",
      "type": "function"
    },
    {
      "inputs": [],
      "name": "rebase",
      "outputs": [],
      "stateMutability": "nonpayable",
      "type": "function"
    },
    {
      "inputs": [],
      "name": "renounceOwnership",
      "outputs": [],
      "stateMutability": "nonpayable",
      "type": "function"
    },
    {
      "inputs": [
        {
          "internalType": "address",
          "name": "newOrganizationAccount",
          "type": "address"
        }
      ],
      "name": "setOrganizationAccount",
      "outputs": [],
      "stateMutability": "nonpayable",
      "type": "function"
    },
    {
      "inputs": [
        {
          "internalType": "uint256",
          "name": "newPercentage",
          "type": "uint256"
        }
      ],
      "name": "setStakingFeePercentage",
      "outputs": [],
      "stateMutability": "nonpayable",
      "type": "function"
    },
    {
      "inputs": [],
      "name": "stakingFeePercentage",
      "outputs": [
        {
          "internalType": "uint256",
          "name": "",
          "type": "uint256"
        }
      ],
      "stateMutability": "view",
      "type": "function"
    },
    {
      "inputs": [
        {
          "internalType": "address",
          "name": "",
          "type": "address"
        },
        {
          "internalType": "uint256",
          "name": "",
          "type": "uint256"
        }
      ],
      "name": "stakingPositions",
      "outputs": [
        {
          "internalType": "address",
          "name": "staker",
          "type": "address"
        },
        {
          "internalType": "uint256",
          "name": "amount",
          "type": "uint256"
        },
        {
          "internalType": "uint256",
          "name": "startTime",
          "type": "uint256"
        },
        {
          "internalType": "uint256",
          "name": "endTime",
          "type": "uint256"
        }
      ],
      "stateMutability": "view",
      "type": "function"
    },
    {
      "inputs": [],
      "name": "symbol",
      "outputs": [
        {
          "internalType": "string",
          "name": "",
          "type": "string"
        }
      ],
      "stateMutability": "view",
      "type": "function"
    },
    {
      "inputs": [
        {
          "internalType": "uint256",
          "name": "",
          "type": "uint256"
        }
      ],
      "name": "tasks",
      "outputs": [
        {
          "internalType": "address",
          "name": "projectManager",
          "type": "address"
        },
        {
          "internalType": "string",
          "name": "taskDescription",
          "type": "string"
        },
        {
          "internalType": "uint256",
          "name": "reward",
          "type": "uint256"
        },
        {
          "internalType": "bool",
          "name": "completed",
          "type": "bool"
        },
        {
          "internalType": "address",
          "name": "volunteer",
          "type": "address"
        },
        {
          "internalType": "bool",
          "name": "authorized",
          "type": "bool"
        }
      ],
      "stateMutability": "view",
      "type": "function"
    },
    {
      "inputs": [],
      "name": "totalDonated",
      "outputs": [
        {
          "internalType": "uint256",
          "name": "",
          "type": "uint256"
        }
      ],
      "stateMutability": "view",
      "type": "function"
    },
    {
      "inputs": [],
      "name": "totalSupply",
      "outputs": [
        {
          "internalType": "uint256",
          "name": "",
          "type": "uint256"
        }
      ],
      "stateMutability": "view",
      "type": "function"
    },
    {
      "inputs": [
        {
          "internalType": "address",
          "name": "to",
          "type": "address"
        },
        {
          "internalType": "uint256",
          "name": "amount",
          "type": "uint256"
        }
      ],
      "name": "transfer",
      "outputs": [
        {
          "internalType": "bool",
          "name": "",
          "type": "bool"
        }
      ],
      "stateMutability": "nonpayable",
      "type": "function"
    },
    {
      "inputs": [
        {
          "internalType": "address",
          "name": "from",
          "type": "address"
        },
        {
          "internalType": "address",
          "name": "to",
          "type": "address"
        },
        {
          "internalType": "uint256",
          "name": "amount",
          "type": "uint256"
        }
      ],
      "name": "transferFrom",
      "outputs": [
        {
          "internalType": "bool",
          "name": "",
          "type": "bool"
        }
      ],
      "stateMutability": "nonpayable",
      "type": "function"
    },
    {
      "inputs": [
        {
          "internalType": "address",
          "name": "newOwner",
          "type": "address"
        }
      ],
      "name": "transferOwnership",
      "outputs": [],
      "stateMutability": "nonpayable",
      "type": "function"
    },
    {
      "inputs": [
        {
          "internalType": "uint256",
          "name": "proposalId",
          "type": "uint256"
        },
        {
          "internalType": "bool",
          "name": "isDeliverablesMet",
          "type": "bool"
        }
      ],
      "name": "updateProjectDeliverables",
      "outputs": [],
      "stateMutability": "nonpayable",
      "type": "function"
    },
    {
      "inputs": [
        {
          "internalType": "uint256",
          "name": "proposalId",
          "type": "uint256"
        },
        {
          "internalType": "bool",
          "name": "isValid",
          "type": "bool"
        }
      ],
      "name": "validateProposal",
      "outputs": [],
      "stateMutability": "nonpayable",
      "type": "function"
    },
    {
      "inputs": [
        {
          "internalType": "address",
          "name": "",
          "type": "address"
        }
      ],
      "name": "volunteers",
      "outputs": [
        {
          "internalType": "bool",
          "name": "",
          "type": "bool"
        }
      ],
      "stateMutability": "view",
      "type": "function"
    }
  ],
  "bytecode": "0x60806040526000600c556000600d556000600e553480156200002057600080fd5b506040518060400160405280601481526020017f554e436f6c6c61626f726174696f6e20436f696e0000000000000000000000008152506040518060400160405280600381526020017f554e43000000000000000000000000000000000000000000000000000000000081525081600390816200009e919062000699565b508060049081620000b0919062000699565b505050620000d3620000c7620001da60201b60201c565b620001e260201b60201c565b6001600681905550620000f8336a115eec47f6cf7e35000000620002a860201b60201c565b6001600960003373ffffffffffffffffffffffffffffffffffffffff1673ffffffffffffffffffffffffffffffffffffffff16815260200190815260200160002060006101000a81548160ff02191690831515021790555033601060006101000a81548173ffffffffffffffffffffffffffffffffffffffff021916908373ffffffffffffffffffffffffffffffffffffffff1602179055503373ffffffffffffffffffffffffffffffffffffffff167f78fadff4dd6915f9cf72214bb7e08255d6977203cba9c7d0e779202870dce4e160405160405180910390a26200089b565b600033905090565b6000600560009054906101000a900473ffffffffffffffffffffffffffffffffffffffff16905081600560006101000a81548173ffffffffffffffffffffffffffffffffffffffff021916908373ffffffffffffffffffffffffffffffffffffffff1602179055508173ffffffffffffffffffffffffffffffffffffffff168173ffffffffffffffffffffffffffffffffffffffff167f8be0079c531659141344cd1fd0a4f28419497f9722a3daafe3b4186f6b6457e060405160405180910390a35050565b600073ffffffffffffffffffffffffffffffffffffffff168273ffffffffffffffffffffffffffffffffffffffff16036200031a576040517f08c379a00000000000000000000000000000000000000000000000000000000081526004016200031190620007e1565b60405180910390fd5b6200032e600083836200041560201b60201c565b806002600082825462000342919062000832565b92505081905550806000808473ffffffffffffffffffffffffffffffffffffffff1673ffffffffffffffffffffffffffffffffffffffff168152602001908152602001600020600082825401925050819055508173ffffffffffffffffffffffffffffffffffffffff16600073ffffffffffffffffffffffffffffffffffffffff167fddf252ad1be2c89b69c2b068fc378daa952ba7f163c4a11628f55a4df523b3ef83604051620003f591906200087e565b60405180910390a362000411600083836200041a60201b60201c565b5050565b505050565b505050565b600081519050919050565b7f4e487b7100000000000000000000000000000000000000000000000000000000600052604160045260246000fd5b7f4e487b7100000000000000000000000000000000000000000000000000000000600052602260045260246000fd5b60006002820490506001821680620004a157607f821691505b602082108103620004b757620004b662000459565b5b50919050565b60008190508160005260206000209050919050565b60006020601f8301049050919050565b600082821b905092915050565b600060088302620005217fffffffffffffffffffffffffffffffffffffffffffffffffffffffffffffffff82620004e2565b6200052d8683620004e2565b95508019841693508086168417925050509392505050565b6000819050919050565b6000819050919050565b60006200057a620005746200056e8462000545565b6200054f565b62000545565b9050919050565b6000819050919050565b620005968362000559565b620005ae620005a58262000581565b848454620004ef565b825550505050565b600090565b620005c5620005b6565b620005d28184846200058b565b505050565b5b81811015620005fa57620005ee600082620005bb565b600181019050620005d8565b5050565b601f82111562000649576200061381620004bd565b6200061e84620004d2565b810160208510156200062e578190505b620006466200063d85620004d2565b830182620005d7565b50505b505050565b600082821c905092915050565b60006200066e600019846008026200064e565b1980831691505092915050565b60006200068983836200065b565b9150826002028217905092915050565b620006a4826200041f565b67ffffffffffffffff811115620006c057620006bf6200042a565b5b620006cc825462000488565b620006d9828285620005fe565b600060209050601f831160018114620007115760008415620006fc578287015190505b6200070885826200067b565b86555062000778565b601f1984166200072186620004bd565b60005b828110156200074b5784890151825560018201915060208501945060208101905062000724565b868310156200076b578489015162000767601f8916826200065b565b8355505b6001600288020188555050505b505050505050565b600082825260208201905092915050565b7f45524332303a206d696e7420746f20746865207a65726f206164647265737300600082015250565b6000620007c9601f8362000780565b9150620007d68262000791565b602082019050919050565b60006020820190508181036000830152620007fc81620007ba565b9050919050565b7f4e487b7100000000000000000000000000000000000000000000000000000000600052601160045260246000fd5b60006200083f8262000545565b91506200084c8362000545565b925082820190508082111562000867576200086662000803565b5b92915050565b620008788162000545565b82525050565b60006020820190506200089560008301846200086d565b92915050565b61487980620008ab6000396000f3fe608060405234801561001057600080fd5b506004361061023c5760003560e01c80638d9776721161013b578063ca535c3b116100b8578063eb91d37e1161007c578063eb91d37e146106e7578063f0dda65c14610705578063f14faf6f14610721578063f2fde38b1461073d578063f76c5279146107595761023c565b8063ca535c3b14610619578063dbc1d56914610637578063dd62ed3e1461066b578063e1e295581461069b578063e6279898146106b75761023c565b8063a457c2d7116100ff578063a457c2d714610575578063a9059cbb146105a5578063af14052c146105d5578063ba536330146105df578063c326adad146105fd5761023c565b80638d977672146104b35780638da5cb5b146104e857806395d89b4114610506578063974151c91461052457806398bceccc146105425761023c565b8063313ce567116101c957806370a082311161018d57806370a082311461042357806370d2ccd614610453578063715018a61461046f5780637e99ce5914610479578063890273fc146104975761023c565b8063313ce5671461036d578063395093511461038b5780633ca6f385146103bb5780635b0324b1146103eb5780636db0b885146104075761023c565b80631394f216116102105780631394f216146102c9578063180acf6e146102e557806318160ddd1461030157806323b872dd1461031f5780632ab09d141461034f5761023c565b8062b370441461024157806306fdde031461025f578063095ea7b31461027d5780630c16d408146102ad575b600080fd5b610249610775565b6040516102569190612c0d565b60405180910390f35b61026761077b565b6040516102749190612cb8565b60405180910390f35b61029760048036038101906102929190612d78565b61080d565b6040516102a49190612dd3565b60405180910390f35b6102c760048036038101906102c29190612f23565b610830565b005b6102e360048036038101906102de9190612f7f565b610ada565b005b6102ff60048036038101906102fa9190612fac565b610c04565b005b610309610c9e565b6040516103169190612c0d565b60405180910390f35b61033960048036038101906103349190612fd9565b610ca8565b6040516103469190612dd3565b60405180910390f35b610357610cd7565b6040516103649190612c0d565b60405180910390f35b610375610cdd565b6040516103829190613048565b60405180910390f35b6103a560048036038101906103a09190612d78565b610ce6565b6040516103b29190612dd3565b60405180910390f35b6103d560048036038101906103d09190612f7f565b610d1d565b6040516103e29190612dd3565b60405180910390f35b61040560048036038101906104009190612f7f565b610d3d565b005b610421600480360381019061041c919061308f565b610d89565b005b61043d60048036038101906104389190612f7f565b610ff6565b60405161044a9190612c0d565b60405180910390f35b61046d600480360381019061046891906130cf565b61103e565b005b6104776112a7565b005b6104816112bb565b60405161048e9190612c0d565b60405180910390f35b6104b160048036038101906104ac9190612f7f565b6112c7565b005b6104cd60048036038101906104c89190612fac565b611481565b6040516104df9695949392919061314d565b60405180910390f35b6104f06115af565b6040516104fd91906131b5565b60405180910390f35b61050e6115d9565b60405161051b9190612cb8565b60405180910390f35b61052c61166b565b60405161053991906131b5565b60405180910390f35b61055c60048036038101906105579190612d78565b611691565b60405161056c94939291906131d0565b60405180910390f35b61058f600480360381019061058a9190612d78565b6116fe565b60405161059c9190612dd3565b60405180910390f35b6105bf60048036038101906105ba9190612d78565b611775565b6040516105cc9190612dd3565b60405180910390f35b6105dd611798565b005b6105e7611888565b6040516105f49190612c0d565b60405180910390f35b61061760048036038101906106129190613215565b611897565b005b610621611a4c565b60405161062e9190612c0d565b60405180910390f35b610651600480360381019061064c9190612fac565b611a52565b604051610662959493929190613255565b60405180910390f35b610685600480360381019061068091906132af565b611b4a565b6040516106929190612c0d565b60405180910390f35b6106b560048036038101906106b09190612fac565b611bd1565b005b6106d160048036038101906106cc9190612f7f565b611dbc565b6040516106de9190612dd3565b60405180910390f35b6106ef611ddc565b6040516106fc9190612c0d565b60405180910390f35b61071f600480360381019061071a9190612d78565b611e19565b005b61073b60048036038101906107369190612fac565b611f68565b005b61075760048036038101906107529190612f7f565b612028565b005b610773600480360381019061076e919061308f565b6120ab565b005b600d5481565b60606003805461078a9061331e565b80601f01602080910402602001604051908101604052809291908181526020018280546107b69061331e565b80156108035780601f106107d857610100808354040283529160200191610803565b820191906000526020600020905b8154815290600101906020018083116107e657829003601f168201915b5050505050905090565b6000806108186121ff565b9050610825818585612207565b600191505092915050565b6108386123d0565b600860003373ffffffffffffffffffffffffffffffffffffffff1673ffffffffffffffffffffffffffffffffffffffff16815260200190815260200160002060009054906101000a900460ff166108c4576040517f08c379a00000000000000000000000000000000000000000000000000000000081526004016108bb906133c1565b60405180910390fd5b60008111610907576040517f08c379a00000000000000000000000000000000000000000000000000000000081526004016108fe90613453565b60405180910390fd5b8061091133610ff6565b1015610952576040517f08c379a0000000000000000000000000000000000000000000000000000000008152600401610949906134bf565b60405180910390fd5b61095c3082611775565b506000600e5490506040518060a001604052803373ffffffffffffffffffffffffffffffffffffffff16815260200184815260200183815260200160001515815260200160001515815250600b600083815260200190815260200160002060008201518160000160006101000a81548173ffffffffffffffffffffffffffffffffffffffff021916908373ffffffffffffffffffffffffffffffffffffffff1602179055506020820151816001019081610a16919061368b565b506040820151816002015560608201518160030160006101000a81548160ff02191690831515021790555060808201518160030160016101000a81548160ff021916908315150217905550905050600e6000815480929190610a779061378c565b91905055503373ffffffffffffffffffffffffffffffffffffffff16817fc97ad58e89bafa99b163ec269223d525c79fbfaf86962327ef9231217a9cac4b8585604051610ac59291906137d4565b60405180910390a350610ad661241f565b5050565b600960003373ffffffffffffffffffffffffffffffffffffffff1673ffffffffffffffffffffffffffffffffffffffff16815260200190815260200160002060009054906101000a900460ff16610b66576040517f08c379a0000000000000000000000000000000000000000000000000000000008152600401610b5d90613876565b60405180910390fd5b6001600960008373ffffffffffffffffffffffffffffffffffffffff1673ffffffffffffffffffffffffffffffffffffffff16815260200190815260200160002060006101000a81548160ff0219169083151502179055508073ffffffffffffffffffffffffffffffffffffffff167f78fadff4dd6915f9cf72214bb7e08255d6977203cba9c7d0e779202870dce4e160405160405180910390a250565b610c0c612429565b60008110158015610c1e575060648111155b610c5d576040517f08c379a0000000000000000000000000000000000000000000000000000000008152600401610c54906138e2565b60405180910390fd5b80600c819055507f32a80662a42e8c8b641bbbbaa1b46c4e09b17feba9ad878369e3aa564aca72f881604051610c939190612c0d565b60405180910390a150565b6000600254905090565b600080610cb36121ff565b9050610cc08582856124a7565b610ccb858585612533565b60019150509392505050565b600e5481565b60006012905090565b600080610cf16121ff565b9050610d12818585610d038589611b4a565b610d0d9190613902565b612207565b600191505092915050565b60096020528060005260406000206000915054906101000a900460ff1681565b610d45612429565b80601060006101000a81548173ffffffffffffffffffffffffffffffffffffffff021916908373ffffffffffffffffffffffffffffffffffffffff16021790555050565b600960003373ffffffffffffffffffffffffffffffffffffffff1673ffffffffffffffffffffffffffffffffffffffff16815260200190815260200160002060009054906101000a900460ff16610e15576040517f08c379a0000000000000000000000000000000000000000000000000000000008152600401610e0c906139a8565b60405180910390fd5b6000600b600084815260200190815260200160002090508060030160009054906101000a900460ff16610e7d576040517f08c379a0000000000000000000000000000000000000000000000000000000008152600401610e7490613a14565b60405180910390fd5b818160030160016101000a81548160ff0219169083151502179055508115610f32576000610ecd6064610ebf600c5485600201546127a990919063ffffffff16565b6127bf90919063ffffffff16565b90506000610ee88284600201546127d590919063ffffffff16565b9050610f19308460000160009054906101000a900473ffffffffffffffffffffffffffffffffffffffff1683612533565b610f2b30610f256115af565b84612533565b5050610fb9565b610f4130338360020154612533565b8060000160009054906101000a900473ffffffffffffffffffffffffffffffffffffffff1673ffffffffffffffffffffffffffffffffffffffff16837fa8c5218c4888faf8cb49e646c200737680b42893becc2352cdbe2c7a9bdbd8508360020154604051610fb09190612c0d565b60405180910390a35b827f9cda5f5e1c42c3931f282fe9c1b300ca7e3948bcec7557886b36aca3312c5a4383604051610fe99190612dd3565b60405180910390a2505050565b60008060008373ffffffffffffffffffffffffffffffffffffffff1673ffffffffffffffffffffffffffffffffffffffff168152602001908152602001600020549050919050565b600960003373ffffffffffffffffffffffffffffffffffffffff1673ffffffffffffffffffffffffffffffffffffffff16815260200190815260200160002060009054906101000a900460ff166110ca576040517f08c379a00000000000000000000000000000000000000000000000000000000081526004016110c190613aa6565b60405180910390fd5b6000600f805490509050600f6040518060c001604052803373ffffffffffffffffffffffffffffffffffffffff1681526020018681526020018581526020016000151581526020018473ffffffffffffffffffffffffffffffffffffffff16815260200160001515815250908060018154018082558091505060019003906000526020600020906004020160009091909190915060008201518160000160006101000a81548173ffffffffffffffffffffffffffffffffffffffff021916908373ffffffffffffffffffffffffffffffffffffffff16021790555060208201518160010190816111ba919061368b565b506040820151816002015560608201518160030160006101000a81548160ff02191690831515021790555060808201518160030160016101000a81548173ffffffffffffffffffffffffffffffffffffffff021916908373ffffffffffffffffffffffffffffffffffffffff16021790555060a08201518160030160156101000a81548160ff02191690831515021790555050503373ffffffffffffffffffffffffffffffffffffffff16817fa412f9cf569f417e8bd00b013c6259a4e9acd7d0dacfd94cead726df237efa1e86868660405161129993929190613ac6565b60405180910390a350505050565b6112af612429565b6112b960006127eb565b565b670de0b6b3a764000081565b600960003373ffffffffffffffffffffffffffffffffffffffff1673ffffffffffffffffffffffffffffffffffffffff16815260200190815260200160002060009054906101000a900460ff16611353576040517f08c379a000000000000000000000000000000000000000000000000000000000815260040161134a90613b76565b60405180910390fd5b6001600860008373ffffffffffffffffffffffffffffffffffffffff1673ffffffffffffffffffffffffffffffffffffffff16815260200190815260200160002060006101000a81548160ff0219169083151502179055506000600760008373ffffffffffffffffffffffffffffffffffffffff1673ffffffffffffffffffffffffffffffffffffffff168152602001908152602001600020600001819055506000600760008373ffffffffffffffffffffffffffffffffffffffff1673ffffffffffffffffffffffffffffffffffffffff168152602001908152602001600020600101819055508073ffffffffffffffffffffffffffffffffffffffff167f8a76eb268577bfb7e15df1151cfd0378609db465997555857ef4fcd3ede4c1f160405160405180910390a250565b600f818154811061149157600080fd5b90600052602060002090600402016000915090508060000160009054906101000a900473ffffffffffffffffffffffffffffffffffffffff16908060010180546114da9061331e565b80601f01602080910402602001604051908101604052809291908181526020018280546115069061331e565b80156115535780601f1061152857610100808354040283529160200191611553565b820191906000526020600020905b81548152906001019060200180831161153657829003601f168201915b5050505050908060020154908060030160009054906101000a900460ff16908060030160019054906101000a900473ffffffffffffffffffffffffffffffffffffffff16908060030160159054906101000a900460ff16905086565b6000600560009054906101000a900473ffffffffffffffffffffffffffffffffffffffff16905090565b6060600480546115e89061331e565b80601f01602080910402602001604051908101604052809291908181526020018280546116149061331e565b80156116615780601f1061163657610100808354040283529160200191611661565b820191906000526020600020905b81548152906001019060200180831161164457829003601f168201915b5050505050905090565b601060009054906101000a900473ffffffffffffffffffffffffffffffffffffffff1681565b600a60205281600052604060002081815481106116ad57600080fd5b9060005260206000209060040201600091509150508060000160009054906101000a900473ffffffffffffffffffffffffffffffffffffffff16908060010154908060020154908060030154905084565b6000806117096121ff565b905060006117178286611b4a565b90508381101561175c576040517f08c379a000000000000000000000000000000000000000000000000000000000815260040161175390613c08565b60405180910390fd5b6117698286868403612207565b60019250505092915050565b6000806117806121ff565b905061178d818585612533565b600191505092915050565b6117a0612429565b60006117aa611ddc565b9050670de0b6b3a7640000811115611816576000611804826117f66117e0670de0b6b3a7640000866127d590919063ffffffff16565b6117e8610c9e565b6127a990919063ffffffff16565b6127bf90919063ffffffff16565b905061181030826128b1565b50611885565b670de0b6b3a7640000811015611884576000611876670de0b6b3a764000061186861185285670de0b6b3a76400006127d590919063ffffffff16565b61185a610c9e565b6127a990919063ffffffff16565b6127bf90919063ffffffff16565b90506118823082612a7e565b505b5b50565b6a115eec47f6cf7e3500000081565b601060009054906101000a900473ffffffffffffffffffffffffffffffffffffffff1673ffffffffffffffffffffffffffffffffffffffff163373ffffffffffffffffffffffffffffffffffffffff1614611927576040517f08c379a000000000000000000000000000000000000000000000000000000000815260040161191e90613c9a565b60405180910390fd5b6000600b600084815260200190815260200160002090508060030160009054906101000a900460ff1661198f576040517f08c379a000000000000000000000000000000000000000000000000000000000815260040161198690613a14565b60405180910390fd5b8060030160019054906101000a900460ff16156119e1576040517f08c379a00000000000000000000000000000000000000000000000000000000081526004016119d890613d2c565b60405180910390fd5b611a0f8160000160009054906101000a900473ffffffffffffffffffffffffffffffffffffffff1683612a7e565b827fa3198b29210b6332fead0a009155d35e69a31c219ce25835a33c8d47174108ab83604051611a3f9190612c0d565b60405180910390a2505050565b600c5481565b600b6020528060005260406000206000915090508060000160009054906101000a900473ffffffffffffffffffffffffffffffffffffffff1690806001018054611a9b9061331e565b80601f0160208091040260200160405190810160405280929190818152602001828054611ac79061331e565b8015611b145780601f10611ae957610100808354040283529160200191611b14565b820191906000526020600020905b815481529060010190602001808311611af757829003601f168201915b5050505050908060020154908060030160009054906101000a900460ff16908060030160019054906101000a900460ff16905085565b6000600160008473ffffffffffffffffffffffffffffffffffffffff1673ffffffffffffffffffffffffffffffffffffffff16815260200190815260200160002060008373ffffffffffffffffffffffffffffffffffffffff1673ffffffffffffffffffffffffffffffffffffffff16815260200190815260200160002054905092915050565b6000600f8281548110611be757611be6613d4c565b5b906000526020600020906004020190503373ffffffffffffffffffffffffffffffffffffffff168160030160019054906101000a900473ffffffffffffffffffffffffffffffffffffffff1673ffffffffffffffffffffffffffffffffffffffff1614611c89576040517f08c379a0000000000000000000000000000000000000000000000000000000008152600401611c8090613ded565b60405180910390fd5b600015158160030160009054906101000a900460ff16151514611ce1576040517f08c379a0000000000000000000000000000000000000000000000000000000008152600401611cd890613e59565b60405180910390fd5b60018160030160006101000a81548160ff0219169083151502179055506000600760003373ffffffffffffffffffffffffffffffffffffffff1673ffffffffffffffffffffffffffffffffffffffff1681526020019081526020016000209050611d5c82600201548260000154612bd490919063ffffffff16565b81600001819055503373ffffffffffffffffffffffffffffffffffffffff16837f843af93d40addceac6932508439844b897d4df9e971db326d557e3cdaa9f3ebf8460020154604051611daf9190612c0d565b60405180910390a3505050565b60086020528060005260406000206000915054906101000a900460ff1681565b6000611e14611de9610c9e565b611e06670de0b6b3a7640000600d546127a990919063ffffffff16565b6127bf90919063ffffffff16565b905090565b600960003373ffffffffffffffffffffffffffffffffffffffff1673ffffffffffffffffffffffffffffffffffffffff16815260200190815260200160002060009054906101000a900460ff16611ea5576040517f08c379a0000000000000000000000000000000000000000000000000000000008152600401611e9c90613eeb565b60405180910390fd5b6a115eec47f6cf7e35000000611ecb82611ebd610c9e565b612bd490919063ffffffff16565b1115611f0c576040517f08c379a0000000000000000000000000000000000000000000000000000000008152600401611f0390613f7d565b60405180910390fd5b611f168282612a7e565b8173ffffffffffffffffffffffffffffffffffffffff167f3f2c9d57c068687834f0de942a9babb9e5acab57d516d3480a3c16ee165a427382604051611f5c9190612c0d565b60405180910390a25050565b60008111611fab576040517f08c379a0000000000000000000000000000000000000000000000000000000008152600401611fa29061400f565b60405180910390fd5b611fd7601060009054906101000a900473ffffffffffffffffffffffffffffffffffffffff1682612a7e565b3373ffffffffffffffffffffffffffffffffffffffff167f264f630d9efa0d07053a31163641d9fcc0adafc9d9e76f1c37c2ce3a558d2c528260405161201d9190612c0d565b60405180910390a250565b612030612429565b600073ffffffffffffffffffffffffffffffffffffffff168173ffffffffffffffffffffffffffffffffffffffff160361209f576040517f08c379a0000000000000000000000000000000000000000000000000000000008152600401612096906140a1565b60405180910390fd5b6120a8816127eb565b50565b600960003373ffffffffffffffffffffffffffffffffffffffff1673ffffffffffffffffffffffffffffffffffffffff16815260200190815260200160002060009054906101000a900460ff16612137576040517f08c379a000000000000000000000000000000000000000000000000000000000815260040161212e90614133565b60405180910390fd5b6000600b60008481526020019081526020016000209050600015158160030160009054906101000a900460ff161515146121a6576040517f08c379a000000000000000000000000000000000000000000000000000000000815260040161219d9061419f565b60405180910390fd5b818160030160006101000a81548160ff021916908315150217905550827f834b15fc22ef38f6369b26611438cf75325615c41b839147963b157e7205133d836040516121f29190612dd3565b60405180910390a2505050565b600033905090565b600073ffffffffffffffffffffffffffffffffffffffff168373ffffffffffffffffffffffffffffffffffffffff1603612276576040517f08c379a000000000000000000000000000000000000000000000000000000000815260040161226d90614231565b60405180910390fd5b600073ffffffffffffffffffffffffffffffffffffffff168273ffffffffffffffffffffffffffffffffffffffff16036122e5576040517f08c379a00000000000000000000000000000000000000000000000000000000081526004016122dc906142c3565b60405180910390fd5b80600160008573ffffffffffffffffffffffffffffffffffffffff1673ffffffffffffffffffffffffffffffffffffffff16815260200190815260200160002060008473ffffffffffffffffffffffffffffffffffffffff1673ffffffffffffffffffffffffffffffffffffffff168152602001908152602001600020819055508173ffffffffffffffffffffffffffffffffffffffff168373ffffffffffffffffffffffffffffffffffffffff167f8c5be1e5ebec7d5bd14f71427d1e84f3dd0314c0f7b2291e5b200ac8c7c3b925836040516123c39190612c0d565b60405180910390a3505050565b600260065403612415576040517f08c379a000000000000000000000000000000000000000000000000000000000815260040161240c9061432f565b60405180910390fd5b6002600681905550565b6001600681905550565b6124316121ff565b73ffffffffffffffffffffffffffffffffffffffff1661244f6115af565b73ffffffffffffffffffffffffffffffffffffffff16146124a5576040517f08c379a000000000000000000000000000000000000000000000000000000000815260040161249c9061439b565b60405180910390fd5b565b60006124b38484611b4a565b90507fffffffffffffffffffffffffffffffffffffffffffffffffffffffffffffffff811461252d578181101561251f576040517f08c379a000000000000000000000000000000000000000000000000000000000815260040161251690614407565b60405180910390fd5b61252c8484848403612207565b5b50505050565b600073ffffffffffffffffffffffffffffffffffffffff168373ffffffffffffffffffffffffffffffffffffffff16036125a2576040517f08c379a000000000000000000000000000000000000000000000000000000000815260040161259990614499565b60405180910390fd5b600073ffffffffffffffffffffffffffffffffffffffff168273ffffffffffffffffffffffffffffffffffffffff1603612611576040517f08c379a00000000000000000000000000000000000000000000000000000000081526004016126089061452b565b60405180910390fd5b61261c838383612bea565b60008060008573ffffffffffffffffffffffffffffffffffffffff1673ffffffffffffffffffffffffffffffffffffffff168152602001908152602001600020549050818110156126a2576040517f08c379a0000000000000000000000000000000000000000000000000000000008152600401612699906145bd565b60405180910390fd5b8181036000808673ffffffffffffffffffffffffffffffffffffffff1673ffffffffffffffffffffffffffffffffffffffff16815260200190815260200160002081905550816000808573ffffffffffffffffffffffffffffffffffffffff1673ffffffffffffffffffffffffffffffffffffffff168152602001908152602001600020600082825401925050819055508273ffffffffffffffffffffffffffffffffffffffff168473ffffffffffffffffffffffffffffffffffffffff167fddf252ad1be2c89b69c2b068fc378daa952ba7f163c4a11628f55a4df523b3ef846040516127909190612c0d565b60405180910390a36127a3848484612bef565b50505050565b600081836127b791906145dd565b905092915050565b600081836127cd919061464e565b905092915050565b600081836127e3919061467f565b905092915050565b6000600560009054906101000a900473ffffffffffffffffffffffffffffffffffffffff16905081600560006101000a81548173ffffffffffffffffffffffffffffffffffffffff021916908373ffffffffffffffffffffffffffffffffffffffff1602179055508173ffffffffffffffffffffffffffffffffffffffff168173ffffffffffffffffffffffffffffffffffffffff167f8be0079c531659141344cd1fd0a4f28419497f9722a3daafe3b4186f6b6457e060405160405180910390a35050565b600073ffffffffffffffffffffffffffffffffffffffff168273ffffffffffffffffffffffffffffffffffffffff1603612920576040517f08c379a000000000000000000000000000000000000000000000000000000000815260040161291790614725565b60405180910390fd5b61292c82600083612bea565b60008060008473ffffffffffffffffffffffffffffffffffffffff1673ffffffffffffffffffffffffffffffffffffffff168152602001908152602001600020549050818110156129b2576040517f08c379a00000000000000000000000000000000000000000000000000000000081526004016129a9906147b7565b60405180910390fd5b8181036000808573ffffffffffffffffffffffffffffffffffffffff1673ffffffffffffffffffffffffffffffffffffffff1681526020019081526020016000208190555081600260008282540392505081905550600073ffffffffffffffffffffffffffffffffffffffff168373ffffffffffffffffffffffffffffffffffffffff167fddf252ad1be2c89b69c2b068fc378daa952ba7f163c4a11628f55a4df523b3ef84604051612a659190612c0d565b60405180910390a3612a7983600084612bef565b505050565b600073ffffffffffffffffffffffffffffffffffffffff168273ffffffffffffffffffffffffffffffffffffffff1603612aed576040517f08c379a0000000000000000000000000000000000000000000000000000000008152600401612ae490614823565b60405180910390fd5b612af960008383612bea565b8060026000828254612b0b9190613902565b92505081905550806000808473ffffffffffffffffffffffffffffffffffffffff1673ffffffffffffffffffffffffffffffffffffffff168152602001908152602001600020600082825401925050819055508173ffffffffffffffffffffffffffffffffffffffff16600073ffffffffffffffffffffffffffffffffffffffff167fddf252ad1be2c89b69c2b068fc378daa952ba7f163c4a11628f55a4df523b3ef83604051612bbc9190612c0d565b60405180910390a3612bd060008383612bef565b5050565b60008183612be29190613902565b905092915050565b505050565b505050565b6000819050919050565b612c0781612bf4565b82525050565b6000602082019050612c226000830184612bfe565b92915050565b600081519050919050565b600082825260208201905092915050565b60005b83811015612c62578082015181840152602081019050612c47565b60008484015250505050565b6000601f19601f8301169050919050565b6000612c8a82612c28565b612c948185612c33565b9350612ca4818560208601612c44565b612cad81612c6e565b840191505092915050565b60006020820190508181036000830152612cd28184612c7f565b905092915050565b6000604051905090565b600080fd5b600080fd5b600073ffffffffffffffffffffffffffffffffffffffff82169050919050565b6000612d1982612cee565b9050919050565b612d2981612d0e565b8114612d3457600080fd5b50565b600081359050612d4681612d20565b92915050565b612d5581612bf4565b8114612d6057600080fd5b50565b600081359050612d7281612d4c565b92915050565b60008060408385031215612d8f57612d8e612ce4565b5b6000612d9d85828601612d37565b9250506020612dae85828601612d63565b9150509250929050565b60008115159050919050565b612dcd81612db8565b82525050565b6000602082019050612de86000830184612dc4565b92915050565b600080fd5b600080fd5b7f4e487b7100000000000000000000000000000000000000000000000000000000600052604160045260246000fd5b612e3082612c6e565b810181811067ffffffffffffffff82111715612e4f57612e4e612df8565b5b80604052505050565b6000612e62612cda565b9050612e6e8282612e27565b919050565b600067ffffffffffffffff821115612e8e57612e8d612df8565b5b612e9782612c6e565b9050602081019050919050565b82818337600083830152505050565b6000612ec6612ec184612e73565b612e58565b905082815260208101848484011115612ee257612ee1612df3565b5b612eed848285612ea4565b509392505050565b600082601f830112612f0a57612f09612dee565b5b8135612f1a848260208601612eb3565b91505092915050565b60008060408385031215612f3a57612f39612ce4565b5b600083013567ffffffffffffffff811115612f5857612f57612ce9565b5b612f6485828601612ef5565b9250506020612f7585828601612d63565b9150509250929050565b600060208284031215612f9557612f94612ce4565b5b6000612fa384828501612d37565b91505092915050565b600060208284031215612fc257612fc1612ce4565b5b6000612fd084828501612d63565b91505092915050565b600080600060608486031215612ff257612ff1612ce4565b5b600061300086828701612d37565b935050602061301186828701612d37565b925050604061302286828701612d63565b9150509250925092565b600060ff82169050919050565b6130428161302c565b82525050565b600060208201905061305d6000830184613039565b92915050565b61306c81612db8565b811461307757600080fd5b50565b60008135905061308981613063565b92915050565b600080604083850312156130a6576130a5612ce4565b5b60006130b485828601612d63565b92505060206130c58582860161307a565b9150509250929050565b6000806000606084860312156130e8576130e7612ce4565b5b600084013567ffffffffffffffff81111561310657613105612ce9565b5b61311286828701612ef5565b935050602061312386828701612d63565b925050604061313486828701612d37565b9150509250925092565b61314781612d0e565b82525050565b600060c082019050613162600083018961313e565b81810360208301526131748188612c7f565b90506131836040830187612bfe565b6131906060830186612dc4565b61319d608083018561313e565b6131aa60a0830184612dc4565b979650505050505050565b60006020820190506131ca600083018461313e565b92915050565b60006080820190506131e5600083018761313e565b6131f26020830186612bfe565b6131ff6040830185612bfe565b61320c6060830184612bfe565b95945050505050565b6000806040838503121561322c5761322b612ce4565b5b600061323a85828601612d63565b925050602061324b85828601612d63565b9150509250929050565b600060a08201905061326a600083018861313e565b818103602083015261327c8187612c7f565b905061328b6040830186612bfe565b6132986060830185612dc4565b6132a56080830184612dc4565b9695505050505050565b600080604083850312156132c6576132c5612ce4565b5b60006132d485828601612d37565b92505060206132e585828601612d37565b9150509250929050565b7f4e487b7100000000000000000000000000000000000000000000000000000000600052602260045260246000fd5b6000600282049050600182168061333657607f821691505b602082108103613349576133486132ef565b5b50919050565b7f4f6e6c7920766f6c756e74656572732063616e2070726f706f73652070726f6a60008201527f6563747300000000000000000000000000000000000000000000000000000000602082015250565b60006133ab602483612c33565b91506133b68261334f565b604082019050919050565b600060208201905081810360008301526133da8161339e565b9050919050565b7f5374616b696e6720616d6f756e74206d7573742062652067726561746572207460008201527f68616e2030000000000000000000000000000000000000000000000000000000602082015250565b600061343d602583612c33565b9150613448826133e1565b604082019050919050565b6000602082019050818103600083015261346c81613430565b9050919050565b7f496e73756666696369656e742062616c616e6365000000000000000000000000600082015250565b60006134a9601483612c33565b91506134b482613473565b602082019050919050565b600060208201905081810360008301526134d88161349c565b9050919050565b60008190508160005260206000209050919050565b60006020601f8301049050919050565b600082821b905092915050565b6000600883026135417fffffffffffffffffffffffffffffffffffffffffffffffffffffffffffffffff82613504565b61354b8683613504565b95508019841693508086168417925050509392505050565b6000819050919050565b600061358861358361357e84612bf4565b613563565b612bf4565b9050919050565b6000819050919050565b6135a28361356d565b6135b66135ae8261358f565b848454613511565b825550505050565b600090565b6135cb6135be565b6135d6818484613599565b505050565b5b818110156135fa576135ef6000826135c3565b6001810190506135dc565b5050565b601f82111561363f57613610816134df565b613619846134f4565b81016020851015613628578190505b61363c613634856134f4565b8301826135db565b50505b505050565b600082821c905092915050565b600061366260001984600802613644565b1980831691505092915050565b600061367b8383613651565b9150826002028217905092915050565b61369482612c28565b67ffffffffffffffff8111156136ad576136ac612df8565b5b6136b7825461331e565b6136c28282856135fe565b600060209050601f8311600181146136f557600084156136e3578287015190505b6136ed858261366f565b865550613755565b601f198416613703866134df565b60005b8281101561372b57848901518255600182019150602085019450602081019050613706565b868310156137485784890151613744601f891682613651565b8355505b6001600288020188555050505b505050505050565b7f4e487b7100000000000000000000000000000000000000000000000000000000600052601160045260246000fd5b600061379782612bf4565b91507fffffffffffffffffffffffffffffffffffffffffffffffffffffffffffffffff82036137c9576137c861375d565b5b600182019050919050565b600060408201905081810360008301526137ee8185612c7f565b90506137fd6020830184612bfe565b9392505050565b7f4f6e6c79206578697374696e672070726f6a656374206d616e6167657273206360008201527f616e20616464206e65772070726f6a656374206d616e61676572730000000000602082015250565b6000613860603b83612c33565b915061386b82613804565b604082019050919050565b6000602082019050818103600083015261388f81613853565b9050919050565b7f496e76616c6964207374616b696e67206665652070657263656e746167650000600082015250565b60006138cc601e83612c33565b91506138d782613896565b602082019050919050565b600060208201905081810360008301526138fb816138bf565b9050919050565b600061390d82612bf4565b915061391883612bf4565b92508282019050808211156139305761392f61375d565b5b92915050565b7f4f6e6c792070726f6a656374206d616e61676572732063616e2075706461746560008201527f2070726f6a6563742064656c6976657261626c65730000000000000000000000602082015250565b6000613992603583612c33565b915061399d82613936565b604082019050919050565b600060208201905081810360008301526139c181613985565b9050919050565b7f50726f706f73616c206d7573742062652076616c696461746564206669727374600082015250565b60006139fe602083612c33565b9150613a09826139c8565b602082019050919050565b60006020820190508181036000830152613a2d816139f1565b9050919050565b7f4f6e6c792070726f6a656374206d616e61676572732063616e2061646420746160008201527f736b730000000000000000000000000000000000000000000000000000000000602082015250565b6000613a90602383612c33565b9150613a9b82613a34565b604082019050919050565b60006020820190508181036000830152613abf81613a83565b9050919050565b60006060820190508181036000830152613ae08186612c7f565b9050613aef6020830185612bfe565b613afc604083018461313e565b949350505050565b7f4f6e6c792070726f6a656374206d616e61676572732063616e2061646420766f60008201527f6c756e7465657273000000000000000000000000000000000000000000000000602082015250565b6000613b60602883612c33565b9150613b6b82613b04565b604082019050919050565b60006020820190508181036000830152613b8f81613b53565b9050919050565b7f45524332303a2064656372656173656420616c6c6f77616e63652062656c6f7760008201527f207a65726f000000000000000000000000000000000000000000000000000000602082015250565b6000613bf2602583612c33565b9150613bfd82613b96565b604082019050919050565b60006020820190508181036000830152613c2181613be5565b9050919050565b7f4f6e6c7920746865206f7267616e697a6174696f6e206163636f756e7420636160008201527f6e206d696e7420666f722070726f6a6563747300000000000000000000000000602082015250565b6000613c84603383612c33565b9150613c8f82613c28565b604082019050919050565b60006020820190508181036000830152613cb381613c77565b9050919050565b7f50726f6a6563742064656c6976657261626c65732061726520616c726561647960008201527f206d657400000000000000000000000000000000000000000000000000000000602082015250565b6000613d16602483612c33565b9150613d2182613cba565b604082019050919050565b60006020820190508181036000830152613d4581613d09565b9050919050565b7f4e487b7100000000000000000000000000000000000000000000000000000000600052603260045260246000fd5b7f4f6e6c79207468652061737369676e656420766f6c756e746565722063616e2060008201527f636f6d706c65746520746865207461736b000000000000000000000000000000602082015250565b6000613dd7603183612c33565b9150613de282613d7b565b604082019050919050565b60006020820190508181036000830152613e0681613dca565b9050919050565b7f5461736b20697320616c726561647920636f6d706c6574656400000000000000600082015250565b6000613e43601983612c33565b9150613e4e82613e0d565b602082019050919050565b60006020820190508181036000830152613e7281613e36565b9050919050565b7f4f6e6c792070726f6a656374206d616e61676572732063616e206d696e74207460008201527f6f6b656e73000000000000000000000000000000000000000000000000000000602082015250565b6000613ed5602583612c33565b9150613ee082613e79565b604082019050919050565b60006020820190508181036000830152613f0481613ec8565b9050919050565b7f4d696e74696e6720776f756c642065786365656420746f74616c20737570706c60008201527f7900000000000000000000000000000000000000000000000000000000000000602082015250565b6000613f67602183612c33565b9150613f7282613f0b565b604082019050919050565b60006020820190508181036000830152613f9681613f5a565b9050919050565b7f446f6e6174696f6e20616d6f756e74206d75737420626520677265617465722060008201527f7468616e20300000000000000000000000000000000000000000000000000000602082015250565b6000613ff9602683612c33565b915061400482613f9d565b604082019050919050565b6000602082019050818103600083015261402881613fec565b9050919050565b7f4f776e61626c653a206e6577206f776e657220697320746865207a65726f206160008201527f6464726573730000000000000000000000000000000000000000000000000000602082015250565b600061408b602683612c33565b91506140968261402f565b604082019050919050565b600060208201905081810360008301526140ba8161407e565b9050919050565b7f4f6e6c792070726f6a656374206d616e61676572732063616e2076616c69646160008201527f74652070726f706f73616c730000000000000000000000000000000000000000602082015250565b600061411d602c83612c33565b9150614128826140c1565b604082019050919050565b6000602082019050818103600083015261414c81614110565b9050919050565b7f50726f706f73616c20697320616c72656164792076616c696461746564000000600082015250565b6000614189601d83612c33565b915061419482614153565b602082019050919050565b600060208201905081810360008301526141b88161417c565b9050919050565b7f45524332303a20617070726f76652066726f6d20746865207a65726f2061646460008201527f7265737300000000000000000000000000000000000000000000000000000000602082015250565b600061421b602483612c33565b9150614226826141bf565b604082019050919050565b6000602082019050818103600083015261424a8161420e565b9050919050565b7f45524332303a20617070726f766520746f20746865207a65726f20616464726560008201527f7373000000000000000000000000000000000000000000000000000000000000602082015250565b60006142ad602283612c33565b91506142b882614251565b604082019050919050565b600060208201905081810360008301526142dc816142a0565b9050919050565b7f5265656e7472616e637947756172643a207265656e7472616e742063616c6c00600082015250565b6000614319601f83612c33565b9150614324826142e3565b602082019050919050565b600060208201905081810360008301526143488161430c565b9050919050565b7f4f776e61626c653a2063616c6c6572206973206e6f7420746865206f776e6572600082015250565b6000614385602083612c33565b91506143908261434f565b602082019050919050565b600060208201905081810360008301526143b481614378565b9050919050565b7f45524332303a20696e73756666696369656e7420616c6c6f77616e6365000000600082015250565b60006143f1601d83612c33565b91506143fc826143bb565b602082019050919050565b60006020820190508181036000830152614420816143e4565b9050919050565b7f45524332303a207472616e736665722066726f6d20746865207a65726f20616460008201527f6472657373000000000000000000000000000000000000000000000000000000602082015250565b6000614483602583612c33565b915061448e82614427565b604082019050919050565b600060208201905081810360008301526144b281614476565b9050919050565b7f45524332303a207472616e7366657220746f20746865207a65726f206164647260008201527f6573730000000000000000000000000000000000000000000000000000000000602082015250565b6000614515602383612c33565b9150614520826144b9565b604082019050919050565b6000602082019050818103600083015261454481614508565b9050919050565b7f45524332303a207472616e7366657220616d6f756e742065786365656473206260008201527f616c616e63650000000000000000000000000000000000000000000000000000602082015250565b60006145a7602683612c33565b91506145b28261454b565b604082019050919050565b600060208201905081810360008301526145d68161459a565b9050919050565b60006145e882612bf4565b91506145f383612bf4565b925082820261460181612bf4565b915082820484148315176146185761461761375d565b5b5092915050565b7f4e487b7100000000000000000000000000000000000000000000000000000000600052601260045260246000fd5b600061465982612bf4565b915061466483612bf4565b9250826146745761467361461f565b5b828204905092915050565b600061468a82612bf4565b915061469583612bf4565b92508282039050818111156146ad576146ac61375d565b5b92915050565b7f45524332303a206275726e2066726f6d20746865207a65726f2061646472657360008201527f7300000000000000000000000000000000000000000000000000000000000000602082015250565b600061470f602183612c33565b915061471a826146b3565b604082019050919050565b6000602082019050818103600083015261473e81614702565b9050919050565b7f45524332303a206275726e20616d6f756e7420657863656564732062616c616e60008201527f6365000000000000000000000000000000000000000000000000000000000000602082015250565b60006147a1602283612c33565b91506147ac82614745565b604082019050919050565b600060208201905081810360008301526147d081614794565b9050919050565b7f45524332303a206d696e7420746f20746865207a65726f206164647265737300600082015250565b600061480d601f83612c33565b9150614818826147d7565b602082019050919050565b6000602082019050818103600083015261483c81614800565b905091905056fea26469706673582212200a65e6218111c4a3c8171ac275a67b89a38b3c90b543f08a8503521eb6fa5d1d64736f6c63430008110033",
  "linkReferences": {},
  "deployedLinkReferences": {}
}